{
  "address": "0x9fE46736679d2D9a65F0992F2272dE9f3c7fa6e0",
  "abi": [
    {
      "inputs": [
        {
          "internalType": "address",
          "name": "_factory",
          "type": "address"
        },
        {
          "internalType": "address",
          "name": "_WETH",
          "type": "address"
        }
      ],
      "stateMutability": "nonpayable",
      "type": "constructor"
    },
    {
      "inputs": [],
      "name": "WETH",
      "outputs": [
        {
          "internalType": "address",
          "name": "",
          "type": "address"
        }
      ],
      "stateMutability": "view",
      "type": "function"
    },
    {
      "inputs": [
        {
          "internalType": "address",
          "name": "token",
          "type": "address"
        },
        {
          "internalType": "uint256",
          "name": "amountTokenDesired",
          "type": "uint256"
        },
        {
          "internalType": "uint256",
          "name": "",
          "type": "uint256"
        },
        {
          "internalType": "uint256",
          "name": "",
          "type": "uint256"
        },
        {
          "internalType": "address",
          "name": "",
          "type": "address"
        },
        {
          "internalType": "uint256",
          "name": "",
          "type": "uint256"
        }
      ],
      "name": "addLiquidityETH",
      "outputs": [
        {
          "internalType": "uint256",
          "name": "amountToken",
          "type": "uint256"
        },
        {
          "internalType": "uint256",
          "name": "amountETH",
          "type": "uint256"
        },
        {
          "internalType": "uint256",
          "name": "liquidity",
          "type": "uint256"
        }
      ],
      "stateMutability": "payable",
      "type": "function"
    },
    {
      "inputs": [],
      "name": "factory",
      "outputs": [
        {
          "internalType": "address",
          "name": "",
          "type": "address"
        }
      ],
      "stateMutability": "view",
      "type": "function"
    },
    {
      "inputs": [
        {
          "internalType": "uint256",
          "name": "amountIn",
          "type": "uint256"
        },
        {
          "internalType": "uint256",
          "name": "",
          "type": "uint256"
        },
        {
          "internalType": "address[]",
          "name": "path",
          "type": "address[]"
        },
        {
          "internalType": "address",
          "name": "to",
          "type": "address"
        },
        {
          "internalType": "uint256",
          "name": "",
          "type": "uint256"
        }
      ],
      "name": "swapExactTokensForETHSupportingFeeOnTransferTokens",
      "outputs": [],
      "stateMutability": "nonpayable",
      "type": "function"
    },
    {
      "stateMutability": "payable",
      "type": "receive"
    }
  ],
  "transactionHash": "0x85023a8f18f62885c97265b378238ad89fe79782a422c30e10ca9b2f889eccf9",
  "args": [
    "0xe7f1725E7734CE288F8367e1Bb143E90bb3F0512",
    "0x5FbDB2315678afecb367f032d93F642f64180aa3"
  ],
  "numDeployments": 1,
  "solcInputHash": "a1d2021959bc9f2afd9be4615684e128",
  "bytecode": "0x60c060405234801561001057600080fd5b5060405161083838038061083883398101604081905261002f91610062565b6001600160a01b039182166080521660a052610095565b80516001600160a01b038116811461005d57600080fd5b919050565b6000806040838503121561007557600080fd5b61007e83610046565b915061008c60208401610046565b90509250929050565b60805160a0516107646100d4600039600081816083015281816101cb015281816102d2015261036601526000818160d401526101fc01526107646000f3fe6080604052600436106100435760003560e01c8063791ac9471461004f578063ad5c464814610071578063c45a0155146100c2578063f305d719146100f657600080fd5b3661004a57005b600080fd5b34801561005b57600080fd5b5061006f61006a366004610582565b610124565b005b34801561007d57600080fd5b506100a57f000000000000000000000000000000000000000000000000000000000000000081565b6040516001600160a01b0390911681526020015b60405180910390f35b3480156100ce57600080fd5b506100a57f000000000000000000000000000000000000000000000000000000000000000081565b610109610104366004610628565b6101ac565b604080519384526020840192909252908201526060016100b9565b60008484600081811061013957610139610686565b905060200201602081019061014e919061069c565b905061015c8133308a610436565b826001600160a01b03166108fc6000471161017857600061017a565b475b6040518115909202916000818181858888f193505050501580156101a2573d6000803e3d6000fd5b5050505050505050565b60405163e6a4390560e01b81526001600160a01b0387811660048301527f0000000000000000000000000000000000000000000000000000000000000000811660248301526000918291829182917f0000000000000000000000000000000000000000000000000000000000000000169063e6a4390590604401602060405180830381865afa158015610243573d6000803e3d6000fd5b505050506040513d601f19601f8201168201806040525081019061026791906106c0565b90506001600160a01b0381166102c45760405162461bcd60e51b815260206004820152601a60248201527f4d6f636b526f757465723a2050616972206e6f7420666f756e6400000000000060448201526064015b60405180910390fd5b6102d08a33838c610436565b7f00000000000000000000000000000000000000000000000000000000000000006001600160a01b031663d0e30db0346040518263ffffffff1660e01b81526004016000604051808303818588803b15801561032b57600080fd5b505af115801561033f573d6000803e3d6000fd5b505060405163a9059cbb60e01b81526001600160a01b0385811660048301523460248301527f000000000000000000000000000000000000000000000000000000000000000016935063a9059cbb925060440190506020604051808303816000875af11580156103b3573d6000803e3d6000fd5b505050506040513d601f19601f820116820180604052508101906103d791906106dd565b6104235760405162461bcd60e51b815260206004820181905260248201527f4d6f636b526f757465723a2057455448207472616e73666572206661696c656460448201526064016102bb565b5096983498506000975095505050505050565b604080516001600160a01b0385811660248301528481166044830152606480830185905283518084039091018152608490920183526020820180516001600160e01b03166323b872dd60e01b179052915160009283929088169161049a91906106ff565b6000604051808303816000865af19150503d80600081146104d7576040519150601f19603f3d011682016040523d82523d6000602084013e6104dc565b606091505b509150915081801561050657508051158061050657508080602001905181019061050691906106dd565b6105525760405162461bcd60e51b815260206004820152601b60248201527f4d6f636b526f757465723a205472616e73666572206661696c6564000000000060448201526064016102bb565b505050505050565b6001600160a01b038116811461056f57600080fd5b50565b803561057d8161055a565b919050565b60008060008060008060a0878903121561059b57600080fd5b8635955060208701359450604087013567ffffffffffffffff8111156105c057600080fd5b8701601f810189136105d157600080fd5b803567ffffffffffffffff8111156105e857600080fd5b8960208260051b84010111156105fd57600080fd5b6020919091019450925061061360608801610572565b95989497509295919493608090920135925050565b60008060008060008060c0878903121561064157600080fd5b863561064c8161055a565b955060208701359450604087013593506060870135925060808701356106718161055a565b9598949750929591949360a090920135925050565b634e487b7160e01b600052603260045260246000fd5b6000602082840312156106ae57600080fd5b81356106b98161055a565b9392505050565b6000602082840312156106d257600080fd5b81516106b98161055a565b6000602082840312156106ef57600080fd5b815180151581146106b957600080fd5b6000825160005b818110156107205760208186018101518583015201610706565b50600092019182525091905056fea264697066735822122031c530862db46615bbc52874dc66ab15991fd70d867b6dbf78902496deb31c8d64736f6c634300081c0033",
  "devdoc": {
    "kind": "dev",
    "methods": {},
    "version": 1
  },
  "userdoc": {
    "kind": "user",
    "methods": {},
    "version": 1
  },
  "storageLayout": {
    "storage": [],
    "types": null
  }
}