{
  "address": "0x5FbDB2315678afecb367f032d93F642f64180aa3",
  "abi": [
    {
      "inputs": [
        {
          "internalType": "address",
          "name": "_marketingWallet",
          "type": "address"
        },
        {
          "internalType": "address",
          "name": "_liquidityWallet",
          "type": "address"
        },
        {
          "internalType": "address",
          "name": "_burnAddress",
          "type": "address"
        },
        {
          "internalType": "address",
          "name": "routerAddress",
          "type": "address"
        }
      ],
      "stateMutability": "nonpayable",
      "type": "constructor"
    },
    {
      "inputs": [
        {
          "internalType": "address",
          "name": "spender",
          "type": "address"
        },
        {
          "internalType": "uint256",
          "name": "allowance",
          "type": "uint256"
        },
        {
          "internalType": "uint256",
          "name": "needed",
          "type": "uint256"
        }
      ],
      "name": "ERC20InsufficientAllowance",
      "type": "error"
    },
    {
      "inputs": [
        {
          "internalType": "address",
          "name": "sender",
          "type": "address"
        },
        {
          "internalType": "uint256",
          "name": "balance",
          "type": "uint256"
        },
        {
          "internalType": "uint256",
          "name": "needed",
          "type": "uint256"
        }
      ],
      "name": "ERC20InsufficientBalance",
      "type": "error"
    },
    {
      "inputs": [
        {
          "internalType": "address",
          "name": "approver",
          "type": "address"
        }
      ],
      "name": "ERC20InvalidApprover",
      "type": "error"
    },
    {
      "inputs": [
        {
          "internalType": "address",
          "name": "receiver",
          "type": "address"
        }
      ],
      "name": "ERC20InvalidReceiver",
      "type": "error"
    },
    {
      "inputs": [
        {
          "internalType": "address",
          "name": "sender",
          "type": "address"
        }
      ],
      "name": "ERC20InvalidSender",
      "type": "error"
    },
    {
      "inputs": [
        {
          "internalType": "address",
          "name": "spender",
          "type": "address"
        }
      ],
      "name": "ERC20InvalidSpender",
      "type": "error"
    },
    {
      "inputs": [
        {
          "internalType": "address",
          "name": "owner",
          "type": "address"
        }
      ],
      "name": "OwnableInvalidOwner",
      "type": "error"
    },
    {
      "inputs": [
        {
          "internalType": "address",
          "name": "account",
          "type": "address"
        }
      ],
      "name": "OwnableUnauthorizedAccount",
      "type": "error"
    },
    {
      "anonymous": false,
      "inputs": [
        {
          "indexed": true,
          "internalType": "address",
          "name": "owner",
          "type": "address"
        },
        {
          "indexed": true,
          "internalType": "address",
          "name": "spender",
          "type": "address"
        },
        {
          "indexed": false,
          "internalType": "uint256",
          "name": "value",
          "type": "uint256"
        }
      ],
      "name": "Approval",
      "type": "event"
    },
    {
      "anonymous": false,
      "inputs": [
        {
          "indexed": true,
          "internalType": "address",
          "name": "add",
          "type": "address"
        },
        {
          "indexed": false,
          "internalType": "bool",
          "name": "enable",
          "type": "bool"
        }
      ],
      "name": "ENABLETRADINGEVENT",
      "type": "event"
    },
    {
      "anonymous": false,
      "inputs": [
        {
          "indexed": true,
          "internalType": "address",
          "name": "to",
          "type": "address"
        },
        {
          "indexed": false,
          "internalType": "uint256",
          "name": "amount",
          "type": "uint256"
        }
      ],
      "name": "MINTEVENT",
      "type": "event"
    },
    {
      "anonymous": false,
      "inputs": [
        {
          "indexed": true,
          "internalType": "address",
          "name": "previousOwner",
          "type": "address"
        },
        {
          "indexed": true,
          "internalType": "address",
          "name": "newOwner",
          "type": "address"
        }
      ],
      "name": "OwnershipTransferred",
      "type": "event"
    },
    {
      "anonymous": false,
      "inputs": [
        {
          "indexed": true,
          "internalType": "address",
          "name": "from",
          "type": "address"
        },
        {
          "indexed": true,
          "internalType": "address",
          "name": "to",
          "type": "address"
        },
        {
          "indexed": false,
          "internalType": "uint256",
          "name": "value",
          "type": "uint256"
        }
      ],
      "name": "Transfer",
      "type": "event"
    },
    {
      "inputs": [
        {
          "internalType": "address",
          "name": "owner",
          "type": "address"
        },
        {
          "internalType": "address",
          "name": "spender",
          "type": "address"
        }
      ],
      "name": "allowance",
      "outputs": [
        {
          "internalType": "uint256",
          "name": "",
          "type": "uint256"
        }
      ],
      "stateMutability": "view",
      "type": "function"
    },
    {
      "inputs": [
        {
          "internalType": "address",
          "name": "",
          "type": "address"
        }
      ],
      "name": "ammPairs",
      "outputs": [
        {
          "internalType": "bool",
          "name": "",
          "type": "bool"
        }
      ],
      "stateMutability": "view",
      "type": "function"
    },
    {
      "inputs": [
        {
          "internalType": "address",
          "name": "spender",
          "type": "address"
        },
        {
          "internalType": "uint256",
          "name": "value",
          "type": "uint256"
        }
      ],
      "name": "approve",
      "outputs": [
        {
          "internalType": "bool",
          "name": "",
          "type": "bool"
        }
      ],
      "stateMutability": "nonpayable",
      "type": "function"
    },
    {
      "inputs": [
        {
          "internalType": "address",
          "name": "account",
          "type": "address"
        }
      ],
      "name": "balanceOf",
      "outputs": [
        {
          "internalType": "uint256",
          "name": "",
          "type": "uint256"
        }
      ],
      "stateMutability": "view",
      "type": "function"
    },
    {
      "inputs": [],
      "name": "burnAddress",
      "outputs": [
        {
          "internalType": "address",
          "name": "",
          "type": "address"
        }
      ],
      "stateMutability": "view",
      "type": "function"
    },
    {
      "inputs": [],
      "name": "decimals",
      "outputs": [
        {
          "internalType": "uint8",
          "name": "",
          "type": "uint8"
        }
      ],
      "stateMutability": "view",
      "type": "function"
    },
    {
      "inputs": [],
      "name": "emergencyWithdrawETH",
      "outputs": [],
      "stateMutability": "nonpayable",
      "type": "function"
    },
    {
      "inputs": [
        {
          "internalType": "address",
          "name": "tokenAddress",
          "type": "address"
        }
      ],
      "name": "emergencyWithdrawToken",
      "outputs": [],
      "stateMutability": "nonpayable",
      "type": "function"
    },
    {
      "inputs": [
        {
          "internalType": "bool",
          "name": "_enabled",
          "type": "bool"
        }
      ],
      "name": "enableTrading",
      "outputs": [],
      "stateMutability": "nonpayable",
      "type": "function"
    },
    {
      "inputs": [],
      "name": "getTaxAllot",
      "outputs": [
        {
          "components": [
            {
              "internalType": "uint256",
              "name": "liquidity",
              "type": "uint256"
            },
            {
              "internalType": "uint256",
              "name": "marketing",
              "type": "uint256"
            },
            {
              "internalType": "uint256",
              "name": "burn",
              "type": "uint256"
            }
          ],
          "internalType": "struct ShiBaToken.TaxAllot",
          "name": "",
          "type": "tuple"
        }
      ],
      "stateMutability": "view",
      "type": "function"
    },
    {
      "inputs": [],
      "name": "getTaxRate",
      "outputs": [
        {
          "components": [
            {
              "internalType": "uint256",
              "name": "buyTax",
              "type": "uint256"
            },
            {
              "internalType": "uint256",
              "name": "sellTax",
              "type": "uint256"
            },
            {
              "internalType": "uint256",
              "name": "transferTax",
              "type": "uint256"
            }
          ],
          "internalType": "struct ShiBaToken.TaxRate",
          "name": "",
          "type": "tuple"
        }
      ],
      "stateMutability": "view",
      "type": "function"
    },
    {
      "inputs": [],
      "name": "getTokenInfo",
      "outputs": [
        {
          "internalType": "uint256",
          "name": "totalSupply_",
          "type": "uint256"
        },
        {
          "internalType": "uint256",
          "name": "circulatingSupply_",
          "type": "uint256"
        },
        {
          "internalType": "uint256",
          "name": "balanceContract_",
          "type": "uint256"
        },
        {
          "internalType": "uint256",
          "name": "burnedBalance_",
          "type": "uint256"
        },
        {
          "internalType": "bool",
          "name": "tradingEnabled_",
          "type": "bool"
        },
        {
          "internalType": "bool",
          "name": "swapEnabled_",
          "type": "bool"
        }
      ],
      "stateMutability": "view",
      "type": "function"
    },
    {
      "inputs": [],
      "name": "getTradeLimit",
      "outputs": [
        {
          "components": [
            {
              "internalType": "uint256",
              "name": "maxTxAmount",
              "type": "uint256"
            },
            {
              "internalType": "uint256",
              "name": "maxWalletAmount",
              "type": "uint256"
            },
            {
              "internalType": "uint256",
              "name": "minTimeBetweenTx",
              "type": "uint256"
            },
            {
              "internalType": "bool",
              "name": "isTradeLimit",
              "type": "bool"
            }
          ],
          "internalType": "struct ShiBaToken.TradeLimit",
          "name": "",
          "type": "tuple"
        }
      ],
      "stateMutability": "view",
      "type": "function"
    },
    {
      "inputs": [],
      "name": "handeSwapAndLiquify",
      "outputs": [],
      "stateMutability": "nonpayable",
      "type": "function"
    },
    {
      "inputs": [],
      "name": "inSwap",
      "outputs": [
        {
          "internalType": "bool",
          "name": "",
          "type": "bool"
        }
      ],
      "stateMutability": "view",
      "type": "function"
    },
    {
      "inputs": [
        {
          "internalType": "address",
          "name": "",
          "type": "address"
        }
      ],
      "name": "isBlacklisted",
      "outputs": [
        {
          "internalType": "bool",
          "name": "",
          "type": "bool"
        }
      ],
      "stateMutability": "view",
      "type": "function"
    },
    {
      "inputs": [
        {
          "internalType": "address",
          "name": "",
          "type": "address"
        }
      ],
      "name": "isExcludedFromFee",
      "outputs": [
        {
          "internalType": "bool",
          "name": "",
          "type": "bool"
        }
      ],
      "stateMutability": "view",
      "type": "function"
    },
    {
      "inputs": [
        {
          "internalType": "address",
          "name": "",
          "type": "address"
        }
      ],
      "name": "isExcludedLimit",
      "outputs": [
        {
          "internalType": "bool",
          "name": "",
          "type": "bool"
        }
      ],
      "stateMutability": "view",
      "type": "function"
    },
    {
      "inputs": [
        {
          "internalType": "address",
          "name": "",
          "type": "address"
        }
      ],
      "name": "lastTxTime",
      "outputs": [
        {
          "internalType": "uint256",
          "name": "",
          "type": "uint256"
        }
      ],
      "stateMutability": "view",
      "type": "function"
    },
    {
      "inputs": [],
      "name": "liquidityWallet",
      "outputs": [
        {
          "internalType": "address",
          "name": "",
          "type": "address"
        }
      ],
      "stateMutability": "view",
      "type": "function"
    },
    {
      "inputs": [],
      "name": "marketingWallet",
      "outputs": [
        {
          "internalType": "address",
          "name": "",
          "type": "address"
        }
      ],
      "stateMutability": "view",
      "type": "function"
    },
    {
      "inputs": [],
      "name": "name",
      "outputs": [
        {
          "internalType": "string",
          "name": "",
          "type": "string"
        }
      ],
      "stateMutability": "view",
      "type": "function"
    },
    {
      "inputs": [],
      "name": "owner",
      "outputs": [
        {
          "internalType": "address",
          "name": "",
          "type": "address"
        }
      ],
      "stateMutability": "view",
      "type": "function"
    },
    {
      "inputs": [],
      "name": "renounceOwnership",
      "outputs": [],
      "stateMutability": "nonpayable",
      "type": "function"
    },
    {
      "inputs": [
        {
          "internalType": "address",
          "name": "account",
          "type": "address"
        },
        {
          "internalType": "bool",
          "name": "blacklisted",
          "type": "bool"
        }
      ],
      "name": "setBlacklisted",
      "outputs": [],
      "stateMutability": "nonpayable",
      "type": "function"
    },
    {
      "inputs": [
        {
          "internalType": "address",
          "name": "_burnAddress",
          "type": "address"
        }
      ],
      "name": "setBurnAddress",
      "outputs": [],
      "stateMutability": "nonpayable",
      "type": "function"
    },
    {
      "inputs": [
        {
          "internalType": "address",
          "name": "account",
          "type": "address"
        },
        {
          "internalType": "bool",
          "name": "excluded",
          "type": "bool"
        }
      ],
      "name": "setExcludedFromFee",
      "outputs": [],
      "stateMutability": "nonpayable",
      "type": "function"
    },
    {
      "inputs": [
        {
          "internalType": "address",
          "name": "account",
          "type": "address"
        },
        {
          "internalType": "bool",
          "name": "excluded",
          "type": "bool"
        }
      ],
      "name": "setExcludedFromLimit",
      "outputs": [],
      "stateMutability": "nonpayable",
      "type": "function"
    },
    {
      "inputs": [
        {
          "internalType": "address",
          "name": "_liquidityWallet",
          "type": "address"
        }
      ],
      "name": "setLiquidityWallet",
      "outputs": [],
      "stateMutability": "nonpayable",
      "type": "function"
    },
    {
      "inputs": [
        {
          "internalType": "address",
          "name": "_marketingWallet",
          "type": "address"
        }
      ],
      "name": "setMarketingWallet",
      "outputs": [],
      "stateMutability": "nonpayable",
      "type": "function"
    },
    {
      "inputs": [
        {
          "components": [
            {
              "internalType": "uint256",
              "name": "liquidity",
              "type": "uint256"
            },
            {
              "internalType": "uint256",
              "name": "marketing",
              "type": "uint256"
            },
            {
              "internalType": "uint256",
              "name": "burn",
              "type": "uint256"
            }
          ],
          "internalType": "struct ShiBaToken.TaxAllot",
          "name": "_allot",
          "type": "tuple"
        }
      ],
      "name": "setTaxAllot",
      "outputs": [],
      "stateMutability": "nonpayable",
      "type": "function"
    },
    {
      "inputs": [
        {
          "components": [
            {
              "internalType": "uint256",
              "name": "buyTax",
              "type": "uint256"
            },
            {
              "internalType": "uint256",
              "name": "sellTax",
              "type": "uint256"
            },
            {
              "internalType": "uint256",
              "name": "transferTax",
              "type": "uint256"
            }
          ],
          "internalType": "struct ShiBaToken.TaxRate",
          "name": "_tax",
          "type": "tuple"
        }
      ],
      "name": "setTaxRate",
      "outputs": [],
      "stateMutability": "nonpayable",
      "type": "function"
    },
    {
      "inputs": [
        {
          "components": [
            {
              "internalType": "uint256",
              "name": "maxTxAmount",
              "type": "uint256"
            },
            {
              "internalType": "uint256",
              "name": "maxWalletAmount",
              "type": "uint256"
            },
            {
              "internalType": "uint256",
              "name": "minTimeBetweenTx",
              "type": "uint256"
            },
            {
              "internalType": "bool",
              "name": "isTradeLimit",
              "type": "bool"
            }
          ],
          "internalType": "struct ShiBaToken.TradeLimit",
          "name": "_limit",
          "type": "tuple"
        }
      ],
      "name": "setTradeLimit",
      "outputs": [],
      "stateMutability": "nonpayable",
      "type": "function"
    },
    {
      "inputs": [],
      "name": "swapEnabled",
      "outputs": [
        {
          "internalType": "bool",
          "name": "",
          "type": "bool"
        }
      ],
      "stateMutability": "view",
      "type": "function"
    },
    {
      "inputs": [],
      "name": "swapThreshold",
      "outputs": [
        {
          "internalType": "uint256",
          "name": "",
          "type": "uint256"
        }
      ],
      "stateMutability": "view",
      "type": "function"
    },
    {
      "inputs": [],
      "name": "symbol",
      "outputs": [
        {
          "internalType": "string",
          "name": "",
          "type": "string"
        }
      ],
      "stateMutability": "view",
      "type": "function"
    },
    {
      "inputs": [],
      "name": "taxAllot",
      "outputs": [
        {
          "internalType": "uint256",
          "name": "liquidity",
          "type": "uint256"
        },
        {
          "internalType": "uint256",
          "name": "marketing",
          "type": "uint256"
        },
        {
          "internalType": "uint256",
          "name": "burn",
          "type": "uint256"
        }
      ],
      "stateMutability": "view",
      "type": "function"
    },
    {
      "inputs": [],
      "name": "taxRate",
      "outputs": [
        {
          "internalType": "uint256",
          "name": "buyTax",
          "type": "uint256"
        },
        {
          "internalType": "uint256",
          "name": "sellTax",
          "type": "uint256"
        },
        {
          "internalType": "uint256",
          "name": "transferTax",
          "type": "uint256"
        }
      ],
      "stateMutability": "view",
      "type": "function"
    },
    {
      "inputs": [],
      "name": "totalSupply",
      "outputs": [
        {
          "internalType": "uint256",
          "name": "",
          "type": "uint256"
        }
      ],
      "stateMutability": "view",
      "type": "function"
    },
    {
      "inputs": [],
      "name": "tradeLimit",
      "outputs": [
        {
          "internalType": "uint256",
          "name": "maxTxAmount",
          "type": "uint256"
        },
        {
          "internalType": "uint256",
          "name": "maxWalletAmount",
          "type": "uint256"
        },
        {
          "internalType": "uint256",
          "name": "minTimeBetweenTx",
          "type": "uint256"
        },
        {
          "internalType": "bool",
          "name": "isTradeLimit",
          "type": "bool"
        }
      ],
      "stateMutability": "view",
      "type": "function"
    },
    {
      "inputs": [],
      "name": "tradingEnabled",
      "outputs": [
        {
          "internalType": "bool",
          "name": "",
          "type": "bool"
        }
      ],
      "stateMutability": "view",
      "type": "function"
    },
    {
      "inputs": [
        {
          "internalType": "address",
          "name": "to",
          "type": "address"
        },
        {
          "internalType": "uint256",
          "name": "value",
          "type": "uint256"
        }
      ],
      "name": "transfer",
      "outputs": [
        {
          "internalType": "bool",
          "name": "",
          "type": "bool"
        }
      ],
      "stateMutability": "nonpayable",
      "type": "function"
    },
    {
      "inputs": [
        {
          "internalType": "address",
          "name": "from",
          "type": "address"
        },
        {
          "internalType": "address",
          "name": "to",
          "type": "address"
        },
        {
          "internalType": "uint256",
          "name": "value",
          "type": "uint256"
        }
      ],
      "name": "transferFrom",
      "outputs": [
        {
          "internalType": "bool",
          "name": "",
          "type": "bool"
        }
      ],
      "stateMutability": "nonpayable",
      "type": "function"
    },
    {
      "inputs": [
        {
          "internalType": "address",
          "name": "newOwner",
          "type": "address"
        }
      ],
      "name": "transferOwnership",
      "outputs": [],
      "stateMutability": "nonpayable",
      "type": "function"
    },
    {
      "inputs": [],
      "name": "uniswapV2Pair",
      "outputs": [
        {
          "internalType": "address",
          "name": "",
          "type": "address"
        }
      ],
      "stateMutability": "view",
      "type": "function"
    },
    {
      "inputs": [],
      "name": "uniswapV2Router",
      "outputs": [
        {
          "internalType": "contract IUniswapV2Router2",
          "name": "",
          "type": "address"
        }
      ],
      "stateMutability": "view",
      "type": "function"
    },
    {
      "stateMutability": "payable",
      "type": "receive"
    }
  ],
  "transactionHash": "0x89badb9627896637400e7a00a713b9a529d799c7b5aa1aba519b638921d84980",
  "args": [
    "0xf39Fd6e51aad88F6F4ce6aB8827279cffFb92266",
    "0xf39Fd6e51aad88F6F4ce6aB8827279cffFb92266",
    "0xf39Fd6e51aad88F6F4ce6aB8827279cffFb92266",
    "0xf39Fd6e51aad88F6F4ce6aB8827279cffFb92266"
  ],
  "numDeployments": 1,
  "solcInputHash": "43bf73fc3b7ad1d68284c7fb8acdd86f",
  "bytecode": "0x608060405261dead601360006101000a81548173ffffffffffffffffffffffffffffffffffffffff021916908373ffffffffffffffffffffffffffffffffffffffff16021790555034801561005357600080fd5b50604051616e60380380616e6083398181016040528101906100759190611fd8565b336040518060400160405280600a81526020017f5368694261546f6b656e000000000000000000000000000000000000000000008152506040518060400160405280600681526020017f534849424154000000000000000000000000000000000000000000000000000081525081600390816100f1919061228f565b508060049081610101919061228f565b505050600073ffffffffffffffffffffffffffffffffffffffff168173ffffffffffffffffffffffffffffffffffffffff16036101765760006040517f1e4fbdf700000000000000000000000000000000000000000000000000000000815260040161016d9190612370565b60405180910390fd5b610185816109fe60201b60201c565b5083601160006101000a81548173ffffffffffffffffffffffffffffffffffffffff021916908373ffffffffffffffffffffffffffffffffffffffff16021790555082601260006101000a81548173ffffffffffffffffffffffffffffffffffffffff021916908373ffffffffffffffffffffffffffffffffffffffff16021790555081601360006101000a81548173ffffffffffffffffffffffffffffffffffffffff021916908373ffffffffffffffffffffffffffffffffffffffff160217905550600073ffffffffffffffffffffffffffffffffffffffff168173ffffffffffffffffffffffffffffffffffffffff16036102b8576040517f08c379a00000000000000000000000000000000000000000000000000000000081526004016102af906123e8565b60405180910390fd5b6102eb601560009054906101000a900473ffffffffffffffffffffffffffffffffffffffff166001610ac460201b60201c565b60405180606001604052806101f481526020016103e8815260200160c88152506007600082015181600001556020820151816001015560408201518160020155905050604051806060016040528061012c81526020016101f4815260200160c8815250600a600082015181600001556020820151816001015560408201518160020155905050604051806080016040528061271060016b033b2e3c9fd0803ce80000006103989190612437565b6103a291906124a8565b8152602001606460016b033b2e3c9fd0803ce80000006103c29190612437565b6103cc91906124a8565b8152602001600a815260200160011515815250600d60008201518160000155602082015181600101556040820151816002015560608201518160030160006101000a81548160ff021916908315150217905550905050620186a060016b033b2e3c9fd0803ce800000061043f9190612437565b61044991906124a8565b6006819055506001601660003373ffffffffffffffffffffffffffffffffffffffff1673ffffffffffffffffffffffffffffffffffffffff16815260200190815260200160002060006101000a81548160ff0219169083151502179055506001601660003073ffffffffffffffffffffffffffffffffffffffff1673ffffffffffffffffffffffffffffffffffffffff16815260200190815260200160002060006101000a81548160ff021916908315150217905550600160166000601560009054906101000a900473ffffffffffffffffffffffffffffffffffffffff1673ffffffffffffffffffffffffffffffffffffffff1673ffffffffffffffffffffffffffffffffffffffff16815260200190815260200160002060006101000a81548160ff021916908315150217905550600160166000601160009054906101000a900473ffffffffffffffffffffffffffffffffffffffff1673ffffffffffffffffffffffffffffffffffffffff1673ffffffffffffffffffffffffffffffffffffffff16815260200190815260200160002060006101000a81548160ff021916908315150217905550600160166000601260009054906101000a900473ffffffffffffffffffffffffffffffffffffffff1673ffffffffffffffffffffffffffffffffffffffff1673ffffffffffffffffffffffffffffffffffffffff16815260200190815260200160002060006101000a81548160ff021916908315150217905550600160166000601360009054906101000a900473ffffffffffffffffffffffffffffffffffffffff1673ffffffffffffffffffffffffffffffffffffffff1673ffffffffffffffffffffffffffffffffffffffff16815260200190815260200160002060006101000a81548160ff0219169083151502179055506001601760003373ffffffffffffffffffffffffffffffffffffffff1673ffffffffffffffffffffffffffffffffffffffff16815260200190815260200160002060006101000a81548160ff0219169083151502179055506001601760003073ffffffffffffffffffffffffffffffffffffffff1673ffffffffffffffffffffffffffffffffffffffff16815260200190815260200160002060006101000a81548160ff021916908315150217905550600160176000601560009054906101000a900473ffffffffffffffffffffffffffffffffffffffff1673ffffffffffffffffffffffffffffffffffffffff1673ffffffffffffffffffffffffffffffffffffffff16815260200190815260200160002060006101000a81548160ff021916908315150217905550600160176000601160009054906101000a900473ffffffffffffffffffffffffffffffffffffffff1673ffffffffffffffffffffffffffffffffffffffff1673ffffffffffffffffffffffffffffffffffffffff16815260200190815260200160002060006101000a81548160ff021916908315150217905550600160176000601260009054906101000a900473ffffffffffffffffffffffffffffffffffffffff1673ffffffffffffffffffffffffffffffffffffffff1673ffffffffffffffffffffffffffffffffffffffff16815260200190815260200160002060006101000a81548160ff021916908315150217905550600160176000601360009054906101000a900473ffffffffffffffffffffffffffffffffffffffff1673ffffffffffffffffffffffffffffffffffffffff1673ffffffffffffffffffffffffffffffffffffffff16815260200190815260200160002060006101000a81548160ff02191690831515021790555061099b336b033b2e3c9fd0803ce8000000610b1f60201b60201c565b3373ffffffffffffffffffffffffffffffffffffffff167f80fa8d9521748efec3039c73aca4ebaa5ed141c05f418f8f851e048d16b6cc576b033b2e3c9fd0803ce80000006040516109ed91906124e8565b60405180910390a250505050612bbd565b6000600560009054906101000a900473ffffffffffffffffffffffffffffffffffffffff16905081600560006101000a81548173ffffffffffffffffffffffffffffffffffffffff021916908373ffffffffffffffffffffffffffffffffffffffff1602179055508173ffffffffffffffffffffffffffffffffffffffff168173ffffffffffffffffffffffffffffffffffffffff167f8be0079c531659141344cd1fd0a4f28419497f9722a3daafe3b4186f6b6457e060405160405180910390a35050565b80601860008473ffffffffffffffffffffffffffffffffffffffff1673ffffffffffffffffffffffffffffffffffffffff16815260200190815260200160002060006101000a81548160ff0219169083151502179055505050565b600073ffffffffffffffffffffffffffffffffffffffff168273ffffffffffffffffffffffffffffffffffffffff1603610b915760006040517fec442f05000000000000000000000000000000000000000000000000000000008152600401610b889190612370565b60405180910390fd5b610ba360008383610ba760201b60201c565b5050565b600073ffffffffffffffffffffffffffffffffffffffff168373ffffffffffffffffffffffffffffffffffffffff1614610fbb57600073ffffffffffffffffffffffffffffffffffffffff168273ffffffffffffffffffffffffffffffffffffffff1603610c4a576040517f08c379a0000000000000000000000000000000000000000000000000000000008152600401610c419061254f565b60405180910390fd5b601a60008473ffffffffffffffffffffffffffffffffffffffff1673ffffffffffffffffffffffffffffffffffffffff16815260200190815260200160002060009054906101000a900460ff16158015610cee5750601a60008373ffffffffffffffffffffffffffffffffffffffff1673ffffffffffffffffffffffffffffffffffffffff16815260200190815260200160002060009054906101000a900460ff16155b610d2d576040517f08c379a0000000000000000000000000000000000000000000000000000000008152600401610d24906125e1565b60405180910390fd5b600d60030160009054906101000a900460ff1615610d5757610d56838383610fd160201b60201c565b5b60158054906101000a900460ff168015610d7e5750601560169054906101000a900460ff16155b8015610dd45750601860008473ffffffffffffffffffffffffffffffffffffffff1673ffffffffffffffffffffffffffffffffffffffff16815260200190815260200160002060009054906101000a900460ff16155b8015610e2a5750601660008473ffffffffffffffffffffffffffffffffffffffff1673ffffffffffffffffffffffffffffffffffffffff16815260200190815260200160002060009054906101000a900460ff16155b8015610e805750601660008373ffffffffffffffffffffffffffffffffffffffff1673ffffffffffffffffffffffffffffffffffffffff16815260200190815260200160002060009054906101000a900460ff16155b8015610e9c5750600654610e993061131060201b60201c565b10155b15610eb357610eb260065461135860201b60201c565b5b6000601560169054906101000a900460ff16159050601660008573ffffffffffffffffffffffffffffffffffffffff1673ffffffffffffffffffffffffffffffffffffffff16815260200190815260200160002060009054906101000a900460ff1680610f695750601660008473ffffffffffffffffffffffffffffffffffffffff1673ffffffffffffffffffffffffffffffffffffffff16815260200190815260200160002060009054906101000a900460ff165b15610f7357600090505b60008115610fb857610f8c8585856115f660201b60201c565b90506000811115610fb757610fa885308361171860201b60201c565b8083610fb49190612601565b92505b5b50505b610fcc83838361171860201b60201c565b505050565b601760008473ffffffffffffffffffffffffffffffffffffffff1673ffffffffffffffffffffffffffffffffffffffff16815260200190815260200160002060009054906101000a900460ff161580156110755750601760008373ffffffffffffffffffffffffffffffffffffffff1673ffffffffffffffffffffffffffffffffffffffff16815260200190815260200160002060009054906101000a900460ff16155b156110c257600d6000015481106110c1576040517f08c379a00000000000000000000000000000000000000000000000000000000081526004016110b8906126a7565b60405180910390fd5b5b601760008373ffffffffffffffffffffffffffffffffffffffff1673ffffffffffffffffffffffffffffffffffffffff16815260200190815260200160002060009054906101000a900460ff1661117b5760006111248361131060201b60201c565b9050600d60010154828261113891906126c7565b1115611179576040517f08c379a00000000000000000000000000000000000000000000000000000000081526004016111709061276d565b60405180910390fd5b505b601760008473ffffffffffffffffffffffffffffffffffffffff1673ffffffffffffffffffffffffffffffffffffffff16815260200190815260200160002060009054906101000a900460ff161580156111da57506000600d60020154115b801561122f5750601860008373ffffffffffffffffffffffffffffffffffffffff1673ffffffffffffffffffffffffffffffffffffffff16815260200190815260200160002060009054906101000a900460ff165b1561130b57600d60020154601960008573ffffffffffffffffffffffffffffffffffffffff1673ffffffffffffffffffffffffffffffffffffffff1681526020019081526020016000205461128491906126c7565b4210156112c6576040517f08c379a00000000000000000000000000000000000000000000000000000000081526004016112bd906127ff565b60405180910390fd5b42601960008573ffffffffffffffffffffffffffffffffffffffff1673ffffffffffffffffffffffffffffffffffffffff168152602001908152602001600020819055505b505050565b60008060008373ffffffffffffffffffffffffffffffffffffffff1673ffffffffffffffffffffffffffffffffffffffff168152602001908152602001600020549050919050565b6001601560166101000a81548160ff021916908315150217905550600081116113b6576040517f08c379a00000000000000000000000000000000000000000000000000000000081526004016113ad9061286b565b60405180910390fd5b6000600a60020154600a60010154600a600001546113d491906126c7565b6113de91906126c7565b905060008111611423576040517f08c379a000000000000000000000000000000000000000000000000000000000815260040161141a906128d7565b60405180910390fd5b6000600282600a60000154856114399190612437565b61144391906124a8565b61144d91906124a8565b9050600082600a60020154856114639190612437565b61146d91906124a8565b905060008111156114ac576114ab30601360009054906101000a900473ffffffffffffffffffffffffffffffffffffffff168361193d60201b60201c565b5b60008183866114bb9190612601565b6114c59190612601565b905060004790506114db82611a3760201b60201c565b600081476114e99190612601565b905060006002600a60020154886115009190612601565b600a60000154846115119190612437565b61151b91906124a8565b61152591906124a8565b9050600081836115359190612601565b90506000821180156115475750600087115b1561155d5761155c8783611c8060201b60201c565b5b60008111156115d057601160009054906101000a900473ffffffffffffffffffffffffffffffffffffffff1673ffffffffffffffffffffffffffffffffffffffff166108fc829081150290604051600060405180830381858888f193505050501580156115ce573d6000803e3d6000fd5b505b50505050505050506000601560166101000a81548160ff02191690831515021790555050565b60008060009050601860008673ffffffffffffffffffffffffffffffffffffffff1673ffffffffffffffffffffffffffffffffffffffff16815260200190815260200160002060009054906101000a900460ff161561167457612710600760000154846116639190612437565b61166d91906124a8565b905061170d565b601860008573ffffffffffffffffffffffffffffffffffffffff1673ffffffffffffffffffffffffffffffffffffffff16815260200190815260200160002060009054906101000a900460ff16156116eb57612710600760010154846116da9190612437565b6116e491906124a8565b905061170c565b612710600760020154846116ff9190612437565b61170991906124a8565b90505b5b809150509392505050565b600073ffffffffffffffffffffffffffffffffffffffff168373ffffffffffffffffffffffffffffffffffffffff160361176a57806002600082825461175e91906126c7565b9250508190555061183d565b60008060008573ffffffffffffffffffffffffffffffffffffffff1673ffffffffffffffffffffffffffffffffffffffff168152602001908152602001600020549050818110156117f6578381836040517fe450d38c0000000000000000000000000000000000000000000000000000000081526004016117ed939291906128f7565b60405180910390fd5b8181036000808673ffffffffffffffffffffffffffffffffffffffff1673ffffffffffffffffffffffffffffffffffffffff16815260200190815260200160002081905550505b600073ffffffffffffffffffffffffffffffffffffffff168273ffffffffffffffffffffffffffffffffffffffff160361188657806002600082825403925050819055506118d3565b806000808473ffffffffffffffffffffffffffffffffffffffff1673ffffffffffffffffffffffffffffffffffffffff168152602001908152602001600020600082825401925050819055505b8173ffffffffffffffffffffffffffffffffffffffff168373ffffffffffffffffffffffffffffffffffffffff167fddf252ad1be2c89b69c2b068fc378daa952ba7f163c4a11628f55a4df523b3ef8360405161193091906124e8565b60405180910390a3505050565b600073ffffffffffffffffffffffffffffffffffffffff168373ffffffffffffffffffffffffffffffffffffffff16036119af5760006040517f96c6fd1e0000000000000000000000000000000000000000000000000000000081526004016119a69190612370565b60405180910390fd5b600073ffffffffffffffffffffffffffffffffffffffff168273ffffffffffffffffffffffffffffffffffffffff1603611a215760006040517fec442f05000000000000000000000000000000000000000000000000000000008152600401611a189190612370565b60405180910390fd5b611a32838383610ba760201b60201c565b505050565b6000600267ffffffffffffffff811115611a5457611a5361204a565b5b604051908082528060200260200182016040528015611a825781602001602082028036833780820191505090505b5090503081600081518110611a9a57611a9961292e565b5b602002602001019073ffffffffffffffffffffffffffffffffffffffff16908173ffffffffffffffffffffffffffffffffffffffff1681525050601460009054906101000a900473ffffffffffffffffffffffffffffffffffffffff1673ffffffffffffffffffffffffffffffffffffffff1663ad5c46486040518163ffffffff1660e01b8152600401602060405180830381865afa158015611b41573d6000803e3d6000fd5b505050506040513d601f19601f82011682018060405250810190611b65919061295d565b81600181518110611b7957611b7861292e565b5b602002602001019073ffffffffffffffffffffffffffffffffffffffff16908173ffffffffffffffffffffffffffffffffffffffff1681525050611be630601460009054906101000a900473ffffffffffffffffffffffffffffffffffffffff1684611d8660201b60201c565b601460009054906101000a900473ffffffffffffffffffffffffffffffffffffffff1673ffffffffffffffffffffffffffffffffffffffff1663791ac9478360008430426040518663ffffffff1660e01b8152600401611c4a959493929190612a83565b600060405180830381600087803b158015611c6457600080fd5b505af1158015611c78573d6000803e3d6000fd5b505050505050565b611cb330601460009054906101000a900473ffffffffffffffffffffffffffffffffffffffff1684611d8660201b60201c565b601460009054906101000a900473ffffffffffffffffffffffffffffffffffffffff1673ffffffffffffffffffffffffffffffffffffffff1663f305d719823085600080601260009054906101000a900473ffffffffffffffffffffffffffffffffffffffff16426040518863ffffffff1660e01b8152600401611d3c96959493929190612add565b60606040518083038185885af1158015611d5a573d6000803e3d6000fd5b50505050506040513d601f19601f82011682018060405250810190611d7f9190612b6a565b5050505050565b611d998383836001611d9e60201b60201c565b505050565b600073ffffffffffffffffffffffffffffffffffffffff168473ffffffffffffffffffffffffffffffffffffffff1603611e105760006040517fe602df05000000000000000000000000000000000000000000000000000000008152600401611e079190612370565b60405180910390fd5b600073ffffffffffffffffffffffffffffffffffffffff168373ffffffffffffffffffffffffffffffffffffffff1603611e825760006040517f94280d62000000000000000000000000000000000000000000000000000000008152600401611e799190612370565b60405180910390fd5b81600160008673ffffffffffffffffffffffffffffffffffffffff1673ffffffffffffffffffffffffffffffffffffffff16815260200190815260200160002060008573ffffffffffffffffffffffffffffffffffffffff1673ffffffffffffffffffffffffffffffffffffffff168152602001908152602001600020819055508015611f6f578273ffffffffffffffffffffffffffffffffffffffff168473ffffffffffffffffffffffffffffffffffffffff167f8c5be1e5ebec7d5bd14f71427d1e84f3dd0314c0f7b2291e5b200ac8c7c3b92584604051611f6691906124e8565b60405180910390a35b50505050565b600080fd5b600073ffffffffffffffffffffffffffffffffffffffff82169050919050565b6000611fa582611f7a565b9050919050565b611fb581611f9a565b8114611fc057600080fd5b50565b600081519050611fd281611fac565b92915050565b60008060008060808587031215611ff257611ff1611f75565b5b600061200087828801611fc3565b945050602061201187828801611fc3565b935050604061202287828801611fc3565b925050606061203387828801611fc3565b91505092959194509250565b600081519050919050565b7f4e487b7100000000000000000000000000000000000000000000000000000000600052604160045260246000fd5b7f4e487b7100000000000000000000000000000000000000000000000000000000600052602260045260246000fd5b600060028204905060018216806120c057607f821691505b6020821081036120d3576120d2612079565b5b50919050565b60008190508160005260206000209050919050565b60006020601f8301049050919050565b600082821b905092915050565b60006008830261213b7fffffffffffffffffffffffffffffffffffffffffffffffffffffffffffffffff826120fe565b61214586836120fe565b95508019841693508086168417925050509392505050565b6000819050919050565b6000819050919050565b600061218c6121876121828461215d565b612167565b61215d565b9050919050565b6000819050919050565b6121a683612171565b6121ba6121b282612193565b84845461210b565b825550505050565b600090565b6121cf6121c2565b6121da81848461219d565b505050565b5b818110156121fe576121f36000826121c7565b6001810190506121e0565b5050565b601f82111561224357612214816120d9565b61221d846120ee565b8101602085101561222c578190505b612240612238856120ee565b8301826121df565b50505b505050565b600082821c905092915050565b600061226660001984600802612248565b1980831691505092915050565b600061227f8383612255565b9150826002028217905092915050565b6122988261203f565b67ffffffffffffffff8111156122b1576122b061204a565b5b6122bb82546120a8565b6122c6828285612202565b600060209050601f8311600181146122f957600084156122e7578287015190505b6122f18582612273565b865550612359565b601f198416612307866120d9565b60005b8281101561232f5784890151825560018201915060208501945060208101905061230a565b8683101561234c5784890151612348601f891682612255565b8355505b6001600288020188555050505b505050505050565b61236a81611f9a565b82525050565b60006020820190506123856000830184612361565b92915050565b600082825260208201905092915050565b7f726f757465722061646472657373206973207a65726f00000000000000000000600082015250565b60006123d260168361238b565b91506123dd8261239c565b602082019050919050565b60006020820190508181036000830152612401816123c5565b9050919050565b7f4e487b7100000000000000000000000000000000000000000000000000000000600052601160045260246000fd5b60006124428261215d565b915061244d8361215d565b925082820261245b8161215d565b9150828204841483151761247257612471612408565b5b5092915050565b7f4e487b7100000000000000000000000000000000000000000000000000000000600052601260045260246000fd5b60006124b38261215d565b91506124be8361215d565b9250826124ce576124cd612479565b5b828204905092915050565b6124e28161215d565b82525050565b60006020820190506124fd60008301846124d9565b92915050565b7f7472616e7366657220746f207a65726f20616464726573730000000000000000600082015250565b600061253960188361238b565b915061254482612503565b602082019050919050565b600060208201905081810360008301526125688161252c565b9050919050565b7f73656e646572206f7220726563697069656e7420697320626c61636b6c69737460008201527f6564000000000000000000000000000000000000000000000000000000000000602082015250565b60006125cb60228361238b565b91506125d68261256f565b604082019050919050565b600060208201905081810360008301526125fa816125be565b9050919050565b600061260c8261215d565b91506126178361215d565b925082820390508181111561262f5761262e612408565b5b92915050565b7f5472616e7366657220616d6f756e74206578636565647320746865206d61785460008201527f78416d6f756e742e000000000000000000000000000000000000000000000000602082015250565b600061269160288361238b565b915061269c82612635565b604082019050919050565b600060208201905081810360008301526126c081612684565b9050919050565b60006126d28261215d565b91506126dd8361215d565b92508282019050808211156126f5576126f4612408565b5b92915050565b7f526563697069656e742062616c616e63652065786365656473206d617857616c60008201527f6c6574416d6f756e742e00000000000000000000000000000000000000000000602082015250565b6000612757602a8361238b565b9150612762826126fb565b604082019050919050565b600060208201905081810360008301526127868161274a565b9050919050565b7f506c656173652077616974206265747765656e207472616e73616374696f6e7360008201527f2e00000000000000000000000000000000000000000000000000000000000000602082015250565b60006127e960218361238b565b91506127f48261278d565b604082019050919050565b60006020820190508181036000830152612818816127dc565b9050919050565b7f6e6f20746f6b656e000000000000000000000000000000000000000000000000600082015250565b600061285560088361238b565b91506128608261281f565b602082019050919050565b6000602082019050818103600083015261288481612848565b9050919050565b7f6e6f20616c6c6f74000000000000000000000000000000000000000000000000600082015250565b60006128c160088361238b565b91506128cc8261288b565b602082019050919050565b600060208201905081810360008301526128f0816128b4565b9050919050565b600060608201905061290c6000830186612361565b61291960208301856124d9565b61292660408301846124d9565b949350505050565b7f4e487b7100000000000000000000000000000000000000000000000000000000600052603260045260246000fd5b60006020828403121561297357612972611f75565b5b600061298184828501611fc3565b91505092915050565b6000819050919050565b60006129af6129aa6129a58461298a565b612167565b61215d565b9050919050565b6129bf81612994565b82525050565b600081519050919050565b600082825260208201905092915050565b6000819050602082019050919050565b6129fa81611f9a565b82525050565b6000612a0c83836129f1565b60208301905092915050565b6000602082019050919050565b6000612a30826129c5565b612a3a81856129d0565b9350612a45836129e1565b8060005b83811015612a76578151612a5d8882612a00565b9750612a6883612a18565b925050600181019050612a49565b5085935050505092915050565b600060a082019050612a9860008301886124d9565b612aa560208301876129b6565b8181036040830152612ab78186612a25565b9050612ac66060830185612361565b612ad360808301846124d9565b9695505050505050565b600060c082019050612af26000830189612361565b612aff60208301886124d9565b612b0c60408301876129b6565b612b1960608301866129b6565b612b266080830185612361565b612b3360a08301846124d9565b979650505050505050565b612b478161215d565b8114612b5257600080fd5b50565b600081519050612b6481612b3e565b92915050565b600080600060608486031215612b8357612b82611f75565b5b6000612b9186828701612b55565b9350506020612ba286828701612b55565b9250506040612bb386828701612b55565b9150509250925092565b61429480612bcc6000396000f3fe6080604052600436106102815760003560e01c8063715018a61161014f578063b2485d72116100c1578063d83067861161007a578063d830678614610993578063dd62ed3e146109be578063e1415c01146109fb578063f275f64b14610a24578063f2fde38b14610a4d578063fe575a8714610a7657610288565b8063b2485d7214610897578063bf78019b146108c0578063cb66667f146108e9578063d01dd6d214610914578063d0e92ad11461093d578063d46980161461096857610288565b80638da5cb5b116101135780638da5cb5b1461078057806395d89b41146107ab578063a629ee29146107d6578063a72905a2146107ed578063a9059cbb1461082a578063abb1dc441461086757610288565b8063715018a6146106d157806375f0a874146106e8578063771a3a1d146107135780637c0403a414610740578063845360171461076957610288565b8063313ce567116101f35780635d098b38116101ac5780635d098b38146105af5780636612e66f146105d8578063673c6dc2146106015780636ddd17131461063e57806370a082311461066957806370d5ae05146106a657610288565b8063313ce5671461049b5780634709eb87146104c657806349bd5a5e146104f35780634ada218b1461051e5780634b0e7216146105495780635342acb41461057257610288565b806318160ddd1161024557806318160ddd146103885780631af03203146103b357806323b872dd146103dc578063296f0a0c146104195780632ad0a383146104425780632fec27041461046d57610288565b80630445b6671461028d57806306fdde03146102b8578063095ea7b3146102e35780631694505e1461032057806317d636051461034b57610288565b3661028857005b600080fd5b34801561029957600080fd5b506102a2610ab3565b6040516102af9190612d86565b60405180910390f35b3480156102c457600080fd5b506102cd610ab9565b6040516102da9190612e31565b60405180910390f35b3480156102ef57600080fd5b5061030a60048036038101906103059190612ee2565b610b4b565b6040516103179190612f3d565b60405180910390f35b34801561032c57600080fd5b50610335610b6e565b6040516103429190612fb7565b60405180910390f35b34801561035757600080fd5b50610372600480360381019061036d9190612fd2565b610b94565b60405161037f9190612d86565b60405180910390f35b34801561039457600080fd5b5061039d610bac565b6040516103aa9190612d86565b60405180910390f35b3480156103bf57600080fd5b506103da60048036038101906103d59190612fd2565b610bb6565b005b3480156103e857600080fd5b5061040360048036038101906103fe9190612fff565b610d47565b6040516104109190612f3d565b60405180910390f35b34801561042557600080fd5b50610440600480360381019061043b9190612fd2565b610d76565b005b34801561044e57600080fd5b50610457610dc2565b60405161046491906130c5565b60405180910390f35b34801561047957600080fd5b50610482610e15565b60405161049294939291906130e0565b60405180910390f35b3480156104a757600080fd5b506104b0610e40565b6040516104bd9190613141565b60405180910390f35b3480156104d257600080fd5b506104db610e49565b6040516104ea9392919061315c565b60405180910390f35b3480156104ff57600080fd5b50610508610e61565b60405161051591906131a2565b60405180910390f35b34801561052a57600080fd5b50610533610e87565b6040516105409190612f3d565b60405180910390f35b34801561055557600080fd5b50610570600480360381019061056b9190612fd2565b610e9a565b005b34801561057e57600080fd5b5061059960048036038101906105949190612fd2565b610ee6565b6040516105a69190612f3d565b60405180910390f35b3480156105bb57600080fd5b506105d660048036038101906105d19190612fd2565b610f06565b005b3480156105e457600080fd5b506105ff60048036038101906105fa91906131e9565b610f52565b005b34801561060d57600080fd5b5061062860048036038101906106239190612fd2565b610fb5565b6040516106359190612f3d565b60405180910390f35b34801561064a57600080fd5b50610653610fd5565b6040516106609190612f3d565b60405180910390f35b34801561067557600080fd5b50610690600480360381019061068b9190612fd2565b610fe6565b60405161069d9190612d86565b60405180910390f35b3480156106b257600080fd5b506106bb61102e565b6040516106c891906131a2565b60405180910390f35b3480156106dd57600080fd5b506106e6611054565b005b3480156106f457600080fd5b506106fd611068565b60405161070a91906131a2565b60405180910390f35b34801561071f57600080fd5b5061072861108e565b6040516107379392919061315c565b60405180910390f35b34801561074c57600080fd5b506107676004803603810190610762919061324d565b6110a6565b005b34801561077557600080fd5b5061077e611128565b005b34801561078c57600080fd5b506107956111c9565b6040516107a291906131a2565b60405180910390f35b3480156107b757600080fd5b506107c06111f3565b6040516107cd9190612e31565b60405180910390f35b3480156107e257600080fd5b506107eb611285565b005b3480156107f957600080fd5b50610814600480360381019061080f9190612fd2565b6112e9565b6040516108219190612f3d565b60405180910390f35b34801561083657600080fd5b50610851600480360381019061084c9190612ee2565b611309565b60405161085e9190612f3d565b60405180910390f35b34801561087357600080fd5b5061087c61132c565b60405161088e9695949392919061327a565b60405180910390f35b3480156108a357600080fd5b506108be60048036038101906108b991906132fa565b6113af565b005b3480156108cc57600080fd5b506108e760048036038101906108e291906131e9565b6113cc565b005b3480156108f557600080fd5b506108fe61142f565b60405161090b9190613369565b60405180910390f35b34801561092057600080fd5b5061093b600480360381019061093691906131e9565b611467565b005b34801561094957600080fd5b506109526114ca565b60405161095f91906133c6565b60405180910390f35b34801561097457600080fd5b5061097d611502565b60405161098a91906131a2565b60405180910390f35b34801561099f57600080fd5b506109a8611528565b6040516109b59190612f3d565b60405180910390f35b3480156109ca57600080fd5b506109e560048036038101906109e091906133e1565b61153b565b6040516109f29190612d86565b60405180910390f35b348015610a0757600080fd5b50610a226004803603810190610a1d9190613440565b6115c2565b005b348015610a3057600080fd5b50610a4b6004803603810190610a46919061346d565b6116b3565b005b348015610a5957600080fd5b50610a746004803603810190610a6f9190612fd2565b61173f565b005b348015610a8257600080fd5b50610a9d6004803603810190610a989190612fd2565b6117c5565b604051610aaa9190612f3d565b60405180910390f35b60065481565b606060038054610ac8906134c9565b80601f0160208091040260200160405190810160405280929190818152602001828054610af4906134c9565b8015610b415780601f10610b1657610100808354040283529160200191610b41565b820191906000526020600020905b815481529060010190602001808311610b2457829003601f168201915b5050505050905090565b600080610b566117e5565b9050610b638185856117ed565b600191505092915050565b601460009054906101000a900473ffffffffffffffffffffffffffffffffffffffff1681565b60196020528060005260406000206000915090505481565b6000600254905090565b610bbe6117ff565b3073ffffffffffffffffffffffffffffffffffffffff168173ffffffffffffffffffffffffffffffffffffffff1603610bf657600080fd5b600081905060008173ffffffffffffffffffffffffffffffffffffffff166370a08231306040518263ffffffff1660e01b8152600401610c3691906131a2565b602060405180830381865afa158015610c53573d6000803e3d6000fd5b505050506040513d601f19601f82011682018060405250810190610c77919061350f565b905060008111610cbc576040517f08c379a0000000000000000000000000000000000000000000000000000000008152600401610cb390613588565b60405180910390fd5b8173ffffffffffffffffffffffffffffffffffffffff1663a9059cbb610ce06111c9565b836040518363ffffffff1660e01b8152600401610cfe9291906135a8565b6020604051808303816000875af1158015610d1d573d6000803e3d6000fd5b505050506040513d601f19601f82011682018060405250810190610d4191906135e6565b50505050565b600080610d526117e5565b9050610d5f858285611886565b610d6a85858561191b565b60019150509392505050565b610d7e6117ff565b80601260006101000a81548173ffffffffffffffffffffffffffffffffffffffff021916908373ffffffffffffffffffffffffffffffffffffffff16021790555050565b610dca612d01565b600d6040518060800160405290816000820154815260200160018201548152602001600282015481526020016003820160009054906101000a900460ff161515151581525050905090565b600d8060000154908060010154908060020154908060030160009054906101000a900460ff16905084565b60006012905090565b600a8060000154908060010154908060020154905083565b601560009054906101000a900473ffffffffffffffffffffffffffffffffffffffff1681565b601560149054906101000a900460ff1681565b610ea26117ff565b80601360006101000a81548173ffffffffffffffffffffffffffffffffffffffff021916908373ffffffffffffffffffffffffffffffffffffffff16021790555050565b60166020528060005260406000206000915054906101000a900460ff1681565b610f0e6117ff565b80601160006101000a81548173ffffffffffffffffffffffffffffffffffffffff021916908373ffffffffffffffffffffffffffffffffffffffff16021790555050565b610f5a6117ff565b80601660008473ffffffffffffffffffffffffffffffffffffffff1673ffffffffffffffffffffffffffffffffffffffff16815260200190815260200160002060006101000a81548160ff0219169083151502179055505050565b60176020528060005260406000206000915054906101000a900460ff1681565b60158054906101000a900460ff1681565b60008060008373ffffffffffffffffffffffffffffffffffffffff1673ffffffffffffffffffffffffffffffffffffffff168152602001908152602001600020549050919050565b601360009054906101000a900473ffffffffffffffffffffffffffffffffffffffff1681565b61105c6117ff565b6110666000611a0f565b565b601160009054906101000a900473ffffffffffffffffffffffffffffffffffffffff1681565b60078060000154908060010154908060020154905083565b6110ae6117ff565b60648160400135826020013583600001356110c99190613642565b6110d39190613642565b14611113576040517f08c379a000000000000000000000000000000000000000000000000000000000815260040161110a906136c2565b60405180910390fd5b80600a818161112291906137fd565b90505050565b6111306117ff565b600047905060008111611178576040517f08c379a000000000000000000000000000000000000000000000000000000000815260040161116f90613857565b60405180910390fd5b6111806111c9565b73ffffffffffffffffffffffffffffffffffffffff166108fc829081150290604051600060405180830381858888f193505050501580156111c5573d6000803e3d6000fd5b5050565b6000600560009054906101000a900473ffffffffffffffffffffffffffffffffffffffff16905090565b606060048054611202906134c9565b80601f016020809104026020016040519081016040528092919081815260200182805461122e906134c9565b801561127b5780601f106112505761010080835404028352916020019161127b565b820191906000526020600020905b81548152906001019060200180831161125e57829003601f168201915b5050505050905090565b61128d6117ff565b600061129830610fe6565b9050600081116112dd576040517f08c379a00000000000000000000000000000000000000000000000000000000081526004016112d4906138c3565b60405180910390fd5b6112e681611ad5565b50565b60186020528060005260406000206000915054906101000a900460ff1681565b6000806113146117e5565b905061132181858561191b565b600191505092915050565b60008060008060008061133d610bac565b955061134830610fe6565b9350838661135691906138e3565b9450611383601360009054906101000a900473ffffffffffffffffffffffffffffffffffffffff16610fe6565b9250601560149054906101000a900460ff16915060158054906101000a900460ff169050909192939495565b6113b76117ff565b80600d81816113c69190613a17565b90505050565b6113d46117ff565b80601760008473ffffffffffffffffffffffffffffffffffffffff1673ffffffffffffffffffffffffffffffffffffffff16815260200190815260200160002060006101000a81548160ff0219169083151502179055505050565b611437612d2b565b60076040518060600160405290816000820154815260200160018201548152602001600282015481525050905090565b61146f6117ff565b80601a60008473ffffffffffffffffffffffffffffffffffffffff1673ffffffffffffffffffffffffffffffffffffffff16815260200190815260200160002060006101000a81548160ff0219169083151502179055505050565b6114d2612d4c565b600a6040518060600160405290816000820154815260200160018201548152602001600282015481525050905090565b601260009054906101000a900473ffffffffffffffffffffffffffffffffffffffff1681565b601560169054906101000a900460ff1681565b6000600160008473ffffffffffffffffffffffffffffffffffffffff1673ffffffffffffffffffffffffffffffffffffffff16815260200190815260200160002060008373ffffffffffffffffffffffffffffffffffffffff1673ffffffffffffffffffffffffffffffffffffffff16815260200190815260200160002054905092915050565b6115ca6117ff565b6127108160000135111580156115e65750612710816020013511155b80156115f85750612710816040013511155b611637576040517f08c379a000000000000000000000000000000000000000000000000000000000815260040161162e90613a97565b60405180910390fd5b6127108160400135826020013583600001356116539190613642565b61165d9190613642565b111561169e576040517f08c379a000000000000000000000000000000000000000000000000000000000815260040161169590613b29565b60405180910390fd5b80600781816116ad9190613bb0565b90505050565b6116bb6117ff565b80601560146101000a81548160ff021916908315150217905550806015806101000a81548160ff0219169083151502179055503373ffffffffffffffffffffffffffffffffffffffff167f9531fb57e28b202749c276a8b0b27cb64790b00f4b3c1c8ee67462cc85ca3b23826040516117349190612f3d565b60405180910390a250565b6117476117ff565b600073ffffffffffffffffffffffffffffffffffffffff168173ffffffffffffffffffffffffffffffffffffffff16036117b95760006040517f1e4fbdf70000000000000000000000000000000000000000000000000000000081526004016117b091906131a2565b60405180910390fd5b6117c281611a0f565b50565b601a6020528060005260406000206000915054906101000a900460ff1681565b600033905090565b6117fa8383836001611d61565b505050565b6118076117e5565b73ffffffffffffffffffffffffffffffffffffffff166118256111c9565b73ffffffffffffffffffffffffffffffffffffffff1614611884576118486117e5565b6040517f118cdaa700000000000000000000000000000000000000000000000000000000815260040161187b91906131a2565b60405180910390fd5b565b6000611892848461153b565b90507fffffffffffffffffffffffffffffffffffffffffffffffffffffffffffffffff8110156119155781811015611905578281836040517ffb8f41b20000000000000000000000000000000000000000000000000000000081526004016118fc93929190613bbe565b60405180910390fd5b61191484848484036000611d61565b5b50505050565b600073ffffffffffffffffffffffffffffffffffffffff168373ffffffffffffffffffffffffffffffffffffffff160361198d5760006040517f96c6fd1e00000000000000000000000000000000000000000000000000000000815260040161198491906131a2565b60405180910390fd5b600073ffffffffffffffffffffffffffffffffffffffff168273ffffffffffffffffffffffffffffffffffffffff16036119ff5760006040517fec442f050000000000000000000000000000000000000000000000000000000081526004016119f691906131a2565b60405180910390fd5b611a0a838383611f38565b505050565b6000600560009054906101000a900473ffffffffffffffffffffffffffffffffffffffff16905081600560006101000a81548173ffffffffffffffffffffffffffffffffffffffff021916908373ffffffffffffffffffffffffffffffffffffffff1602179055508173ffffffffffffffffffffffffffffffffffffffff168173ffffffffffffffffffffffffffffffffffffffff167f8be0079c531659141344cd1fd0a4f28419497f9722a3daafe3b4186f6b6457e060405160405180910390a35050565b6001601560166101000a81548160ff02191690831515021790555060008111611b33576040517f08c379a0000000000000000000000000000000000000000000000000000000008152600401611b2a906138c3565b60405180910390fd5b6000600a60020154600a60010154600a60000154611b519190613642565b611b5b9190613642565b905060008111611ba0576040517f08c379a0000000000000000000000000000000000000000000000000000000008152600401611b9790613c41565b60405180910390fd5b6000600282600a6000015485611bb69190613c61565b611bc09190613cd2565b611bca9190613cd2565b9050600082600a6002015485611be09190613c61565b611bea9190613cd2565b90506000811115611c2357611c2230601360009054906101000a900473ffffffffffffffffffffffffffffffffffffffff168361191b565b5b6000818386611c3291906138e3565b611c3c91906138e3565b90506000479050611c4c8261233e565b60008147611c5a91906138e3565b905060006002600a6002015488611c7191906138e3565b600a6000015484611c829190613c61565b611c8c9190613cd2565b611c969190613cd2565b905060008183611ca691906138e3565b9050600082118015611cb85750600087115b15611cc857611cc78783612581565b5b6000811115611d3b57601160009054906101000a900473ffffffffffffffffffffffffffffffffffffffff1673ffffffffffffffffffffffffffffffffffffffff166108fc829081150290604051600060405180830381858888f19350505050158015611d39573d6000803e3d6000fd5b505b50505050505050506000601560166101000a81548160ff02191690831515021790555050565b600073ffffffffffffffffffffffffffffffffffffffff168473ffffffffffffffffffffffffffffffffffffffff1603611dd35760006040517fe602df05000000000000000000000000000000000000000000000000000000008152600401611dca91906131a2565b60405180910390fd5b600073ffffffffffffffffffffffffffffffffffffffff168373ffffffffffffffffffffffffffffffffffffffff1603611e455760006040517f94280d62000000000000000000000000000000000000000000000000000000008152600401611e3c91906131a2565b60405180910390fd5b81600160008673ffffffffffffffffffffffffffffffffffffffff1673ffffffffffffffffffffffffffffffffffffffff16815260200190815260200160002060008573ffffffffffffffffffffffffffffffffffffffff1673ffffffffffffffffffffffffffffffffffffffff168152602001908152602001600020819055508015611f32578273ffffffffffffffffffffffffffffffffffffffff168473ffffffffffffffffffffffffffffffffffffffff167f8c5be1e5ebec7d5bd14f71427d1e84f3dd0314c0f7b2291e5b200ac8c7c3b92584604051611f299190612d86565b60405180910390a35b50505050565b600073ffffffffffffffffffffffffffffffffffffffff168373ffffffffffffffffffffffffffffffffffffffff161461232e57600073ffffffffffffffffffffffffffffffffffffffff168273ffffffffffffffffffffffffffffffffffffffff1603611fdb576040517f08c379a0000000000000000000000000000000000000000000000000000000008152600401611fd290613d4f565b60405180910390fd5b601a60008473ffffffffffffffffffffffffffffffffffffffff1673ffffffffffffffffffffffffffffffffffffffff16815260200190815260200160002060009054906101000a900460ff1615801561207f5750601a60008373ffffffffffffffffffffffffffffffffffffffff1673ffffffffffffffffffffffffffffffffffffffff16815260200190815260200160002060009054906101000a900460ff16155b6120be576040517f08c379a00000000000000000000000000000000000000000000000000000000081526004016120b590613de1565b60405180910390fd5b600d60030160009054906101000a900460ff16156120e2576120e1838383612681565b5b60158054906101000a900460ff1680156121095750601560169054906101000a900460ff16155b801561215f5750601860008473ffffffffffffffffffffffffffffffffffffffff1673ffffffffffffffffffffffffffffffffffffffff16815260200190815260200160002060009054906101000a900460ff16155b80156121b55750601660008473ffffffffffffffffffffffffffffffffffffffff1673ffffffffffffffffffffffffffffffffffffffff16815260200190815260200160002060009054906101000a900460ff16155b801561220b5750601660008373ffffffffffffffffffffffffffffffffffffffff1673ffffffffffffffffffffffffffffffffffffffff16815260200190815260200160002060009054906101000a900460ff16155b8015612221575060065461221e30610fe6565b10155b1561223257612231600654611ad5565b5b6000601560169054906101000a900460ff16159050601660008573ffffffffffffffffffffffffffffffffffffffff1673ffffffffffffffffffffffffffffffffffffffff16815260200190815260200160002060009054906101000a900460ff16806122e85750601660008473ffffffffffffffffffffffffffffffffffffffff1673ffffffffffffffffffffffffffffffffffffffff16815260200190815260200160002060009054906101000a900460ff165b156122f257600090505b6000811561232b576123058585856129ba565b9050600081111561232a5761231b853083612adc565b808361232791906138e3565b92505b5b50505b612339838383612adc565b505050565b6000600267ffffffffffffffff81111561235b5761235a613e01565b5b6040519080825280602002602001820160405280156123895781602001602082028036833780820191505090505b50905030816000815181106123a1576123a0613e30565b5b602002602001019073ffffffffffffffffffffffffffffffffffffffff16908173ffffffffffffffffffffffffffffffffffffffff1681525050601460009054906101000a900473ffffffffffffffffffffffffffffffffffffffff1673ffffffffffffffffffffffffffffffffffffffff1663ad5c46486040518163ffffffff1660e01b8152600401602060405180830381865afa158015612448573d6000803e3d6000fd5b505050506040513d601f19601f8201168201806040525081019061246c9190613e74565b816001815181106124805761247f613e30565b5b602002602001019073ffffffffffffffffffffffffffffffffffffffff16908173ffffffffffffffffffffffffffffffffffffffff16815250506124e730601460009054906101000a900473ffffffffffffffffffffffffffffffffffffffff16846117ed565b601460009054906101000a900473ffffffffffffffffffffffffffffffffffffffff1673ffffffffffffffffffffffffffffffffffffffff1663791ac9478360008430426040518663ffffffff1660e01b815260040161254b959493929190613f9a565b600060405180830381600087803b15801561256557600080fd5b505af1158015612579573d6000803e3d6000fd5b505050505050565b6125ae30601460009054906101000a900473ffffffffffffffffffffffffffffffffffffffff16846117ed565b601460009054906101000a900473ffffffffffffffffffffffffffffffffffffffff1673ffffffffffffffffffffffffffffffffffffffff1663f305d719823085600080601260009054906101000a900473ffffffffffffffffffffffffffffffffffffffff16426040518863ffffffff1660e01b815260040161263796959493929190613ff4565b60606040518083038185885af1158015612655573d6000803e3d6000fd5b50505050506040513d601f19601f8201168201806040525081019061267a9190614055565b5050505050565b601760008473ffffffffffffffffffffffffffffffffffffffff1673ffffffffffffffffffffffffffffffffffffffff16815260200190815260200160002060009054906101000a900460ff161580156127255750601760008373ffffffffffffffffffffffffffffffffffffffff1673ffffffffffffffffffffffffffffffffffffffff16815260200190815260200160002060009054906101000a900460ff16155b1561277257600d600001548110612771576040517f08c379a00000000000000000000000000000000000000000000000000000000081526004016127689061411a565b60405180910390fd5b5b601760008373ffffffffffffffffffffffffffffffffffffffff1673ffffffffffffffffffffffffffffffffffffffff16815260200190815260200160002060009054906101000a900460ff166128255760006127ce83610fe6565b9050600d6001015482826127e29190613642565b1115612823576040517f08c379a000000000000000000000000000000000000000000000000000000000815260040161281a906141ac565b60405180910390fd5b505b601760008473ffffffffffffffffffffffffffffffffffffffff1673ffffffffffffffffffffffffffffffffffffffff16815260200190815260200160002060009054906101000a900460ff1615801561288457506000600d60020154115b80156128d95750601860008373ffffffffffffffffffffffffffffffffffffffff1673ffffffffffffffffffffffffffffffffffffffff16815260200190815260200160002060009054906101000a900460ff165b156129b557600d60020154601960008573ffffffffffffffffffffffffffffffffffffffff1673ffffffffffffffffffffffffffffffffffffffff1681526020019081526020016000205461292e9190613642565b421015612970576040517f08c379a00000000000000000000000000000000000000000000000000000000081526004016129679061423e565b60405180910390fd5b42601960008573ffffffffffffffffffffffffffffffffffffffff1673ffffffffffffffffffffffffffffffffffffffff168152602001908152602001600020819055505b505050565b60008060009050601860008673ffffffffffffffffffffffffffffffffffffffff1673ffffffffffffffffffffffffffffffffffffffff16815260200190815260200160002060009054906101000a900460ff1615612a385761271060076000015484612a279190613c61565b612a319190613cd2565b9050612ad1565b601860008573ffffffffffffffffffffffffffffffffffffffff1673ffffffffffffffffffffffffffffffffffffffff16815260200190815260200160002060009054906101000a900460ff1615612aaf5761271060076001015484612a9e9190613c61565b612aa89190613cd2565b9050612ad0565b61271060076002015484612ac39190613c61565b612acd9190613cd2565b90505b5b809150509392505050565b600073ffffffffffffffffffffffffffffffffffffffff168373ffffffffffffffffffffffffffffffffffffffff1603612b2e578060026000828254612b229190613642565b92505081905550612c01565b60008060008573ffffffffffffffffffffffffffffffffffffffff1673ffffffffffffffffffffffffffffffffffffffff16815260200190815260200160002054905081811015612bba578381836040517fe450d38c000000000000000000000000000000000000000000000000000000008152600401612bb193929190613bbe565b60405180910390fd5b8181036000808673ffffffffffffffffffffffffffffffffffffffff1673ffffffffffffffffffffffffffffffffffffffff16815260200190815260200160002081905550505b600073ffffffffffffffffffffffffffffffffffffffff168273ffffffffffffffffffffffffffffffffffffffff1603612c4a5780600260008282540392505081905550612c97565b806000808473ffffffffffffffffffffffffffffffffffffffff1673ffffffffffffffffffffffffffffffffffffffff168152602001908152602001600020600082825401925050819055505b8173ffffffffffffffffffffffffffffffffffffffff168373ffffffffffffffffffffffffffffffffffffffff167fddf252ad1be2c89b69c2b068fc378daa952ba7f163c4a11628f55a4df523b3ef83604051612cf49190612d86565b60405180910390a3505050565b60405180608001604052806000815260200160008152602001600081526020016000151581525090565b60405180606001604052806000815260200160008152602001600081525090565b60405180606001604052806000815260200160008152602001600081525090565b6000819050919050565b612d8081612d6d565b82525050565b6000602082019050612d9b6000830184612d77565b92915050565b600081519050919050565b600082825260208201905092915050565b60005b83811015612ddb578082015181840152602081019050612dc0565b60008484015250505050565b6000601f19601f8301169050919050565b6000612e0382612da1565b612e0d8185612dac565b9350612e1d818560208601612dbd565b612e2681612de7565b840191505092915050565b60006020820190508181036000830152612e4b8184612df8565b905092915050565b600080fd5b600073ffffffffffffffffffffffffffffffffffffffff82169050919050565b6000612e8382612e58565b9050919050565b612e9381612e78565b8114612e9e57600080fd5b50565b600081359050612eb081612e8a565b92915050565b612ebf81612d6d565b8114612eca57600080fd5b50565b600081359050612edc81612eb6565b92915050565b60008060408385031215612ef957612ef8612e53565b5b6000612f0785828601612ea1565b9250506020612f1885828601612ecd565b9150509250929050565b60008115159050919050565b612f3781612f22565b82525050565b6000602082019050612f526000830184612f2e565b92915050565b6000819050919050565b6000612f7d612f78612f7384612e58565b612f58565b612e58565b9050919050565b6000612f8f82612f62565b9050919050565b6000612fa182612f84565b9050919050565b612fb181612f96565b82525050565b6000602082019050612fcc6000830184612fa8565b92915050565b600060208284031215612fe857612fe7612e53565b5b6000612ff684828501612ea1565b91505092915050565b60008060006060848603121561301857613017612e53565b5b600061302686828701612ea1565b935050602061303786828701612ea1565b925050604061304886828701612ecd565b9150509250925092565b61305b81612d6d565b82525050565b61306a81612f22565b82525050565b6080820160008201516130866000850182613052565b5060208201516130996020850182613052565b5060408201516130ac6040850182613052565b5060608201516130bf6060850182613061565b50505050565b60006080820190506130da6000830184613070565b92915050565b60006080820190506130f56000830187612d77565b6131026020830186612d77565b61310f6040830185612d77565b61311c6060830184612f2e565b95945050505050565b600060ff82169050919050565b61313b81613125565b82525050565b60006020820190506131566000830184613132565b92915050565b60006060820190506131716000830186612d77565b61317e6020830185612d77565b61318b6040830184612d77565b949350505050565b61319c81612e78565b82525050565b60006020820190506131b76000830184613193565b92915050565b6131c681612f22565b81146131d157600080fd5b50565b6000813590506131e3816131bd565b92915050565b60008060408385031215613200576131ff612e53565b5b600061320e85828601612ea1565b925050602061321f858286016131d4565b9150509250929050565b600080fd5b60006060828403121561324457613243613229565b5b81905092915050565b60006060828403121561326357613262612e53565b5b60006132718482850161322e565b91505092915050565b600060c08201905061328f6000830189612d77565b61329c6020830188612d77565b6132a96040830187612d77565b6132b66060830186612d77565b6132c36080830185612f2e565b6132d060a0830184612f2e565b979650505050505050565b6000608082840312156132f1576132f0613229565b5b81905092915050565b6000608082840312156133105761330f612e53565b5b600061331e848285016132db565b91505092915050565b60608201600082015161333d6000850182613052565b5060208201516133506020850182613052565b5060408201516133636040850182613052565b50505050565b600060608201905061337e6000830184613327565b92915050565b60608201600082015161339a6000850182613052565b5060208201516133ad6020850182613052565b5060408201516133c06040850182613052565b50505050565b60006060820190506133db6000830184613384565b92915050565b600080604083850312156133f8576133f7612e53565b5b600061340685828601612ea1565b925050602061341785828601612ea1565b9150509250929050565b60006060828403121561343757613436613229565b5b81905092915050565b60006060828403121561345657613455612e53565b5b600061346484828501613421565b91505092915050565b60006020828403121561348357613482612e53565b5b6000613491848285016131d4565b91505092915050565b7f4e487b7100000000000000000000000000000000000000000000000000000000600052602260045260246000fd5b600060028204905060018216806134e157607f821691505b6020821081036134f4576134f361349a565b5b50919050565b60008151905061350981612eb6565b92915050565b60006020828403121561352557613524612e53565b5b6000613533848285016134fa565b91505092915050565b7f6e6f20746f6b656e730000000000000000000000000000000000000000000000600082015250565b6000613572600983612dac565b915061357d8261353c565b602082019050919050565b600060208201905081810360008301526135a181613565565b9050919050565b60006040820190506135bd6000830185613193565b6135ca6020830184612d77565b9392505050565b6000815190506135e0816131bd565b92915050565b6000602082840312156135fc576135fb612e53565b5b600061360a848285016135d1565b91505092915050565b7f4e487b7100000000000000000000000000000000000000000000000000000000600052601160045260246000fd5b600061364d82612d6d565b915061365883612d6d565b92508282019050808211156136705761366f613613565b5b92915050565b7f546f74616c2074617820616c6c6f636174696f6e206d75737420626520313030600082015250565b60006136ac602083612dac565b91506136b782613676565b602082019050919050565b600060208201905081810360008301526136db8161369f565b9050919050565b600081356136ef81612eb6565b80915050919050565b60008160001b9050919050565b60007fffffffffffffffffffffffffffffffffffffffffffffffffffffffffffffffff613731846136f8565b9350801983169250808416831791505092915050565b600061376261375d61375884612d6d565b612f58565b612d6d565b9050919050565b6000819050919050565b61377c82613747565b61378f61378882613769565b8354613705565b8255505050565b6000810160008301806137a8816136e2565b90506137b48184613773565b5050506001810160208301806137c9816136e2565b90506137d58184613773565b5050506002810160408301806137ea816136e2565b90506137f68184613773565b5050505050565b6138078282613796565b5050565b7f6e6f206574680000000000000000000000000000000000000000000000000000600082015250565b6000613841600683612dac565b915061384c8261380b565b602082019050919050565b6000602082019050818103600083015261387081613834565b9050919050565b7f6e6f20746f6b656e000000000000000000000000000000000000000000000000600082015250565b60006138ad600883612dac565b91506138b882613877565b602082019050919050565b600060208201905081810360008301526138dc816138a0565b9050919050565b60006138ee82612d6d565b91506138f983612d6d565b925082820390508181111561391157613910613613565b5b92915050565b60008135613924816131bd565b80915050919050565b600060ff61393a846136f8565b9350801983169250808416831791505092915050565b600061395b82612f22565b9050919050565b6000819050919050565b61397582613950565b61398861398182613962565b835461392d565b8255505050565b6000810160008301806139a1816136e2565b90506139ad8184613773565b5050506001810160208301806139c2816136e2565b90506139ce8184613773565b5050506002810160408301806139e3816136e2565b90506139ef8184613773565b505050600381016060830180613a0481613917565b9050613a10818461396c565b5050505050565b613a21828261398f565b5050565b7f546178207261746573206d757374206265206265747765656e203020616e642060008201527f3130303030000000000000000000000000000000000000000000000000000000602082015250565b6000613a81602583612dac565b9150613a8c82613a25565b604082019050919050565b60006020820190508181036000830152613ab081613a74565b9050919050565b7f746f74616c207261746573206d757374206c657373207468616e20313030303060008201527f3000000000000000000000000000000000000000000000000000000000000000602082015250565b6000613b13602183612dac565b9150613b1e82613ab7565b604082019050919050565b60006020820190508181036000830152613b4281613b06565b9050919050565b600081016000830180613b5b816136e2565b9050613b678184613773565b505050600181016020830180613b7c816136e2565b9050613b888184613773565b505050600281016040830180613b9d816136e2565b9050613ba98184613773565b5050505050565b613bba8282613b49565b5050565b6000606082019050613bd36000830186613193565b613be06020830185612d77565b613bed6040830184612d77565b949350505050565b7f6e6f20616c6c6f74000000000000000000000000000000000000000000000000600082015250565b6000613c2b600883612dac565b9150613c3682613bf5565b602082019050919050565b60006020820190508181036000830152613c5a81613c1e565b9050919050565b6000613c6c82612d6d565b9150613c7783612d6d565b9250828202613c8581612d6d565b91508282048414831517613c9c57613c9b613613565b5b5092915050565b7f4e487b7100000000000000000000000000000000000000000000000000000000600052601260045260246000fd5b6000613cdd82612d6d565b9150613ce883612d6d565b925082613cf857613cf7613ca3565b5b828204905092915050565b7f7472616e7366657220746f207a65726f20616464726573730000000000000000600082015250565b6000613d39601883612dac565b9150613d4482613d03565b602082019050919050565b60006020820190508181036000830152613d6881613d2c565b9050919050565b7f73656e646572206f7220726563697069656e7420697320626c61636b6c69737460008201527f6564000000000000000000000000000000000000000000000000000000000000602082015250565b6000613dcb602283612dac565b9150613dd682613d6f565b604082019050919050565b60006020820190508181036000830152613dfa81613dbe565b9050919050565b7f4e487b7100000000000000000000000000000000000000000000000000000000600052604160045260246000fd5b7f4e487b7100000000000000000000000000000000000000000000000000000000600052603260045260246000fd5b600081519050613e6e81612e8a565b92915050565b600060208284031215613e8a57613e89612e53565b5b6000613e9884828501613e5f565b91505092915050565b6000819050919050565b6000613ec6613ec1613ebc84613ea1565b612f58565b612d6d565b9050919050565b613ed681613eab565b82525050565b600081519050919050565b600082825260208201905092915050565b6000819050602082019050919050565b613f1181612e78565b82525050565b6000613f238383613f08565b60208301905092915050565b6000602082019050919050565b6000613f4782613edc565b613f518185613ee7565b9350613f5c83613ef8565b8060005b83811015613f8d578151613f748882613f17565b9750613f7f83613f2f565b925050600181019050613f60565b5085935050505092915050565b600060a082019050613faf6000830188612d77565b613fbc6020830187613ecd565b8181036040830152613fce8186613f3c565b9050613fdd6060830185613193565b613fea6080830184612d77565b9695505050505050565b600060c0820190506140096000830189613193565b6140166020830188612d77565b6140236040830187613ecd565b6140306060830186613ecd565b61403d6080830185613193565b61404a60a0830184612d77565b979650505050505050565b60008060006060848603121561406e5761406d612e53565b5b600061407c868287016134fa565b935050602061408d868287016134fa565b925050604061409e868287016134fa565b9150509250925092565b7f5472616e7366657220616d6f756e74206578636565647320746865206d61785460008201527f78416d6f756e742e000000000000000000000000000000000000000000000000602082015250565b6000614104602883612dac565b915061410f826140a8565b604082019050919050565b60006020820190508181036000830152614133816140f7565b9050919050565b7f526563697069656e742062616c616e63652065786365656473206d617857616c60008201527f6c6574416d6f756e742e00000000000000000000000000000000000000000000602082015250565b6000614196602a83612dac565b91506141a18261413a565b604082019050919050565b600060208201905081810360008301526141c581614189565b9050919050565b7f506c656173652077616974206265747765656e207472616e73616374696f6e7360008201527f2e00000000000000000000000000000000000000000000000000000000000000602082015250565b6000614228602183612dac565b9150614233826141cc565b604082019050919050565b600060208201905081810360008301526142578161421b565b905091905056fea2646970667358221220a1b84f786db2bb0b1a8c73cf4e4963c78635e68a0b1c94d3125b81702160f56f64736f6c634300081c0033",
  "devdoc": {
    "errors": {
      "ERC20InsufficientAllowance(address,uint256,uint256)": [
        {
          "details": "Indicates a failure with the `spender`s `allowance`. Used in transfers.",
          "params": {
            "allowance": "Amount of tokens a `spender` is allowed to operate with.",
            "needed": "Minimum amount required to perform a transfer.",
            "spender": "Address that may be allowed to operate on tokens without being their owner."
          }
        }
      ],
      "ERC20InsufficientBalance(address,uint256,uint256)": [
        {
          "details": "Indicates an error related to the current `balance` of a `sender`. Used in transfers.",
          "params": {
            "balance": "Current balance for the interacting account.",
            "needed": "Minimum amount required to perform a transfer.",
            "sender": "Address whose tokens are being transferred."
          }
        }
      ],
      "ERC20InvalidApprover(address)": [
        {
          "details": "Indicates a failure with the `approver` of a token to be approved. Used in approvals.",
          "params": {
            "approver": "Address initiating an approval operation."
          }
        }
      ],
      "ERC20InvalidReceiver(address)": [
        {
          "details": "Indicates a failure with the token `receiver`. Used in transfers.",
          "params": {
            "receiver": "Address to which tokens are being transferred."
          }
        }
      ],
      "ERC20InvalidSender(address)": [
        {
          "details": "Indicates a failure with the token `sender`. Used in transfers.",
          "params": {
            "sender": "Address whose tokens are being transferred."
          }
        }
      ],
      "ERC20InvalidSpender(address)": [
        {
          "details": "Indicates a failure with the `spender` to be approved. Used in approvals.",
          "params": {
            "spender": "Address that may be allowed to operate on tokens without being their owner."
          }
        }
      ],
      "OwnableInvalidOwner(address)": [
        {
          "details": "The owner is not a valid owner account. (eg. `address(0)`)"
        }
      ],
      "OwnableUnauthorizedAccount(address)": [
        {
          "details": "The caller account is not authorized to perform an operation."
        }
      ]
    },
    "events": {
      "Approval(address,address,uint256)": {
        "details": "Emitted when the allowance of a `spender` for an `owner` is set by a call to {approve}. `value` is the new allowance."
      },
      "Transfer(address,address,uint256)": {
        "details": "Emitted when `value` tokens are moved from one account (`from`) to another (`to`). Note that `value` may be zero."
      }
    },
    "kind": "dev",
    "methods": {
      "allowance(address,address)": {
        "details": "Returns the remaining number of tokens that `spender` will be allowed to spend on behalf of `owner` through {transferFrom}. This is zero by default. This value changes when {approve} or {transferFrom} are called."
      },
      "approve(address,uint256)": {
        "details": "See {IERC20-approve}. NOTE: If `value` is the maximum `uint256`, the allowance is not updated on `transferFrom`. This is semantically equivalent to an infinite approval. Requirements: - `spender` cannot be the zero address."
      },
      "balanceOf(address)": {
        "details": "Returns the value of tokens owned by `account`."
      },
      "decimals()": {
        "details": "Returns the number of decimals used to get its user representation. For example, if `decimals` equals `2`, a balance of `505` tokens should be displayed to a user as `5.05` (`505 / 10 ** 2`). Tokens usually opt for a value of 18, imitating the relationship between Ether and Wei. This is the default value returned by this function, unless it's overridden. NOTE: This information is only used for _display_ purposes: it in no way affects any of the arithmetic of the contract, including {IERC20-balanceOf} and {IERC20-transfer}."
      },
      "name()": {
        "details": "Returns the name of the token."
      },
      "owner()": {
        "details": "Returns the address of the current owner."
      },
      "renounceOwnership()": {
        "details": "Leaves the contract without owner. It will not be possible to call `onlyOwner` functions. Can only be called by the current owner. NOTE: Renouncing ownership will leave the contract without an owner, thereby disabling any functionality that is only available to the owner."
      },
      "symbol()": {
        "details": "Returns the symbol of the token, usually a shorter version of the name."
      },
      "totalSupply()": {
        "details": "Returns the value of tokens in existence."
      },
      "transfer(address,uint256)": {
        "details": "See {IERC20-transfer}. Requirements: - `to` cannot be the zero address. - the caller must have a balance of at least `value`."
      },
      "transferFrom(address,address,uint256)": {
        "details": "See {IERC20-transferFrom}. Skips emitting an {Approval} event indicating an allowance update. This is not required by the ERC. See {xref-ERC20-_approve-address-address-uint256-bool-}[_approve]. NOTE: Does not update the allowance if the current allowance is the maximum `uint256`. Requirements: - `from` and `to` cannot be the zero address. - `from` must have a balance of at least `value`. - the caller must have allowance for ``from``'s tokens of at least `value`."
      },
      "transferOwnership(address)": {
        "details": "Transfers ownership of the contract to a new account (`newOwner`). Can only be called by the current owner."
      }
    },
    "version": 1
  },
  "userdoc": {
    "kind": "user",
    "methods": {},
    "version": 1
  },
  "storageLayout": {
    "storage": [
      {
        "astId": 307,
        "contract": "contracts/ShiBaToken.sol:ShiBaToken",
        "label": "_balances",
        "offset": 0,
        "slot": "0",
        "type": "t_mapping(t_address,t_uint256)"
      },
      {
        "astId": 313,
        "contract": "contracts/ShiBaToken.sol:ShiBaToken",
        "label": "_allowances",
        "offset": 0,
        "slot": "1",
        "type": "t_mapping(t_address,t_mapping(t_address,t_uint256))"
      },
      {
        "astId": 315,
        "contract": "contracts/ShiBaToken.sol:ShiBaToken",
        "label": "_totalSupply",
        "offset": 0,
        "slot": "2",
        "type": "t_uint256"
      },
      {
        "astId": 317,
        "contract": "contracts/ShiBaToken.sol:ShiBaToken",
        "label": "_name",
        "offset": 0,
        "slot": "3",
        "type": "t_string_storage"
      },
      {
        "astId": 319,
        "contract": "contracts/ShiBaToken.sol:ShiBaToken",
        "label": "_symbol",
        "offset": 0,
        "slot": "4",
        "type": "t_string_storage"
      },
      {
        "astId": 8,
        "contract": "contracts/ShiBaToken.sol:ShiBaToken",
        "label": "_owner",
        "offset": 0,
        "slot": "5",
        "type": "t_address"
      },
      {
        "astId": 956,
        "contract": "contracts/ShiBaToken.sol:ShiBaToken",
        "label": "swapThreshold",
        "offset": 0,
        "slot": "6",
        "type": "t_uint256"
      },
      {
        "astId": 966,
        "contract": "contracts/ShiBaToken.sol:ShiBaToken",
        "label": "taxRate",
        "offset": 0,
        "slot": "7",
        "type": "t_struct(TaxRate)963_storage"
      },
      {
        "astId": 976,
        "contract": "contracts/ShiBaToken.sol:ShiBaToken",
        "label": "taxAllot",
        "offset": 0,
        "slot": "10",
        "type": "t_struct(TaxAllot)973_storage"
      },
      {
        "astId": 988,
        "contract": "contracts/ShiBaToken.sol:ShiBaToken",
        "label": "tradeLimit",
        "offset": 0,
        "slot": "13",
        "type": "t_struct(TradeLimit)985_storage"
      },
      {
        "astId": 990,
        "contract": "contracts/ShiBaToken.sol:ShiBaToken",
        "label": "marketingWallet",
        "offset": 0,
        "slot": "17",
        "type": "t_address"
      },
      {
        "astId": 992,
        "contract": "contracts/ShiBaToken.sol:ShiBaToken",
        "label": "liquidityWallet",
        "offset": 0,
        "slot": "18",
        "type": "t_address"
      },
      {
        "astId": 998,
        "contract": "contracts/ShiBaToken.sol:ShiBaToken",
        "label": "burnAddress",
        "offset": 0,
        "slot": "19",
        "type": "t_address"
      },
      {
        "astId": 1001,
        "contract": "contracts/ShiBaToken.sol:ShiBaToken",
        "label": "uniswapV2Router",
        "offset": 0,
        "slot": "20",
        "type": "t_contract(IUniswapV2Router2)2234"
      },
      {
        "astId": 1003,
        "contract": "contracts/ShiBaToken.sol:ShiBaToken",
        "label": "uniswapV2Pair",
        "offset": 0,
        "slot": "21",
        "type": "t_address"
      },
      {
        "astId": 1005,
        "contract": "contracts/ShiBaToken.sol:ShiBaToken",
        "label": "tradingEnabled",
        "offset": 20,
        "slot": "21",
        "type": "t_bool"
      },
      {
        "astId": 1007,
        "contract": "contracts/ShiBaToken.sol:ShiBaToken",
        "label": "swapEnabled",
        "offset": 21,
        "slot": "21",
        "type": "t_bool"
      },
      {
        "astId": 1009,
        "contract": "contracts/ShiBaToken.sol:ShiBaToken",
        "label": "inSwap",
        "offset": 22,
        "slot": "21",
        "type": "t_bool"
      },
      {
        "astId": 1013,
        "contract": "contracts/ShiBaToken.sol:ShiBaToken",
        "label": "isExcludedFromFee",
        "offset": 0,
        "slot": "22",
        "type": "t_mapping(t_address,t_bool)"
      },
      {
        "astId": 1017,
        "contract": "contracts/ShiBaToken.sol:ShiBaToken",
        "label": "isExcludedLimit",
        "offset": 0,
        "slot": "23",
        "type": "t_mapping(t_address,t_bool)"
      },
      {
        "astId": 1021,
        "contract": "contracts/ShiBaToken.sol:ShiBaToken",
        "label": "ammPairs",
        "offset": 0,
        "slot": "24",
        "type": "t_mapping(t_address,t_bool)"
      },
      {
        "astId": 1025,
        "contract": "contracts/ShiBaToken.sol:ShiBaToken",
        "label": "lastTxTime",
        "offset": 0,
        "slot": "25",
        "type": "t_mapping(t_address,t_uint256)"
      },
      {
        "astId": 1029,
        "contract": "contracts/ShiBaToken.sol:ShiBaToken",
        "label": "isBlacklisted",
        "offset": 0,
        "slot": "26",
        "type": "t_mapping(t_address,t_bool)"
      }
    ],
    "types": {
      "t_address": {
        "encoding": "inplace",
        "label": "address",
        "numberOfBytes": "20"
      },
      "t_bool": {
        "encoding": "inplace",
        "label": "bool",
        "numberOfBytes": "1"
      },
      "t_contract(IUniswapV2Router2)2234": {
        "encoding": "inplace",
        "label": "contract IUniswapV2Router2",
        "numberOfBytes": "20"
      },
      "t_mapping(t_address,t_bool)": {
        "encoding": "mapping",
        "key": "t_address",
        "label": "mapping(address => bool)",
        "numberOfBytes": "32",
        "value": "t_bool"
      },
      "t_mapping(t_address,t_mapping(t_address,t_uint256))": {
        "encoding": "mapping",
        "key": "t_address",
        "label": "mapping(address => mapping(address => uint256))",
        "numberOfBytes": "32",
        "value": "t_mapping(t_address,t_uint256)"
      },
      "t_mapping(t_address,t_uint256)": {
        "encoding": "mapping",
        "key": "t_address",
        "label": "mapping(address => uint256)",
        "numberOfBytes": "32",
        "value": "t_uint256"
      },
      "t_string_storage": {
        "encoding": "bytes",
        "label": "string",
        "numberOfBytes": "32"
      },
      "t_struct(TaxAllot)973_storage": {
        "encoding": "inplace",
        "label": "struct ShiBaToken.TaxAllot",
        "members": [
          {
            "astId": 968,
            "contract": "contracts/ShiBaToken.sol:ShiBaToken",
            "label": "liquidity",
            "offset": 0,
            "slot": "0",
            "type": "t_uint256"
          },
          {
            "astId": 970,
            "contract": "contracts/ShiBaToken.sol:ShiBaToken",
            "label": "marketing",
            "offset": 0,
            "slot": "1",
            "type": "t_uint256"
          },
          {
            "astId": 972,
            "contract": "contracts/ShiBaToken.sol:ShiBaToken",
            "label": "burn",
            "offset": 0,
            "slot": "2",
            "type": "t_uint256"
          }
        ],
        "numberOfBytes": "96"
      },
      "t_struct(TaxRate)963_storage": {
        "encoding": "inplace",
        "label": "struct ShiBaToken.TaxRate",
        "members": [
          {
            "astId": 958,
            "contract": "contracts/ShiBaToken.sol:ShiBaToken",
            "label": "buyTax",
            "offset": 0,
            "slot": "0",
            "type": "t_uint256"
          },
          {
            "astId": 960,
            "contract": "contracts/ShiBaToken.sol:ShiBaToken",
            "label": "sellTax",
            "offset": 0,
            "slot": "1",
            "type": "t_uint256"
          },
          {
            "astId": 962,
            "contract": "contracts/ShiBaToken.sol:ShiBaToken",
            "label": "transferTax",
            "offset": 0,
            "slot": "2",
            "type": "t_uint256"
          }
        ],
        "numberOfBytes": "96"
      },
      "t_struct(TradeLimit)985_storage": {
        "encoding": "inplace",
        "label": "struct ShiBaToken.TradeLimit",
        "members": [
          {
            "astId": 978,
            "contract": "contracts/ShiBaToken.sol:ShiBaToken",
            "label": "maxTxAmount",
            "offset": 0,
            "slot": "0",
            "type": "t_uint256"
          },
          {
            "astId": 980,
            "contract": "contracts/ShiBaToken.sol:ShiBaToken",
            "label": "maxWalletAmount",
            "offset": 0,
            "slot": "1",
            "type": "t_uint256"
          },
          {
            "astId": 982,
            "contract": "contracts/ShiBaToken.sol:ShiBaToken",
            "label": "minTimeBetweenTx",
            "offset": 0,
            "slot": "2",
            "type": "t_uint256"
          },
          {
            "astId": 984,
            "contract": "contracts/ShiBaToken.sol:ShiBaToken",
            "label": "isTradeLimit",
            "offset": 0,
            "slot": "3",
            "type": "t_bool"
          }
        ],
        "numberOfBytes": "128"
      },
      "t_uint256": {
        "encoding": "inplace",
        "label": "uint256",
        "numberOfBytes": "32"
      }
    }
  }
}