{
  "address": "0xCf7Ed3AccA5a467e9e704C703E8D87F634fB0Fc9",
  "abi": [
    {
      "inputs": [
        {
          "internalType": "address",
          "name": "_marketingWallet",
          "type": "address"
        },
        {
          "internalType": "address",
          "name": "_liquidityWallet",
          "type": "address"
        },
        {
          "internalType": "address",
          "name": "_burnAddress",
          "type": "address"
        },
        {
          "internalType": "address",
          "name": "routerAddress",
          "type": "address"
        }
      ],
      "stateMutability": "nonpayable",
      "type": "constructor"
    },
    {
      "inputs": [
        {
          "internalType": "address",
          "name": "spender",
          "type": "address"
        },
        {
          "internalType": "uint256",
          "name": "allowance",
          "type": "uint256"
        },
        {
          "internalType": "uint256",
          "name": "needed",
          "type": "uint256"
        }
      ],
      "name": "ERC20InsufficientAllowance",
      "type": "error"
    },
    {
      "inputs": [
        {
          "internalType": "address",
          "name": "sender",
          "type": "address"
        },
        {
          "internalType": "uint256",
          "name": "balance",
          "type": "uint256"
        },
        {
          "internalType": "uint256",
          "name": "needed",
          "type": "uint256"
        }
      ],
      "name": "ERC20InsufficientBalance",
      "type": "error"
    },
    {
      "inputs": [
        {
          "internalType": "address",
          "name": "approver",
          "type": "address"
        }
      ],
      "name": "ERC20InvalidApprover",
      "type": "error"
    },
    {
      "inputs": [
        {
          "internalType": "address",
          "name": "receiver",
          "type": "address"
        }
      ],
      "name": "ERC20InvalidReceiver",
      "type": "error"
    },
    {
      "inputs": [
        {
          "internalType": "address",
          "name": "sender",
          "type": "address"
        }
      ],
      "name": "ERC20InvalidSender",
      "type": "error"
    },
    {
      "inputs": [
        {
          "internalType": "address",
          "name": "spender",
          "type": "address"
        }
      ],
      "name": "ERC20InvalidSpender",
      "type": "error"
    },
    {
      "inputs": [
        {
          "internalType": "address",
          "name": "owner",
          "type": "address"
        }
      ],
      "name": "OwnableInvalidOwner",
      "type": "error"
    },
    {
      "inputs": [
        {
          "internalType": "address",
          "name": "account",
          "type": "address"
        }
      ],
      "name": "OwnableUnauthorizedAccount",
      "type": "error"
    },
    {
      "anonymous": false,
      "inputs": [
        {
          "indexed": true,
          "internalType": "address",
          "name": "owner",
          "type": "address"
        },
        {
          "indexed": true,
          "internalType": "address",
          "name": "spender",
          "type": "address"
        },
        {
          "indexed": false,
          "internalType": "uint256",
          "name": "value",
          "type": "uint256"
        }
      ],
      "name": "Approval",
      "type": "event"
    },
    {
      "anonymous": false,
      "inputs": [
        {
          "indexed": true,
          "internalType": "address",
          "name": "add",
          "type": "address"
        },
        {
          "indexed": false,
          "internalType": "bool",
          "name": "enable",
          "type": "bool"
        }
      ],
      "name": "ENABLETRADINGEVENT",
      "type": "event"
    },
    {
      "anonymous": false,
      "inputs": [
        {
          "indexed": true,
          "internalType": "address",
          "name": "to",
          "type": "address"
        },
        {
          "indexed": false,
          "internalType": "uint256",
          "name": "amount",
          "type": "uint256"
        }
      ],
      "name": "MINTEVENT",
      "type": "event"
    },
    {
      "anonymous": false,
      "inputs": [
        {
          "indexed": true,
          "internalType": "address",
          "name": "previousOwner",
          "type": "address"
        },
        {
          "indexed": true,
          "internalType": "address",
          "name": "newOwner",
          "type": "address"
        }
      ],
      "name": "OwnershipTransferred",
      "type": "event"
    },
    {
      "anonymous": false,
      "inputs": [
        {
          "indexed": true,
          "internalType": "address",
          "name": "from",
          "type": "address"
        },
        {
          "indexed": true,
          "internalType": "address",
          "name": "to",
          "type": "address"
        },
        {
          "indexed": false,
          "internalType": "uint256",
          "name": "value",
          "type": "uint256"
        }
      ],
      "name": "Transfer",
      "type": "event"
    },
    {
      "inputs": [
        {
          "internalType": "address",
          "name": "owner",
          "type": "address"
        },
        {
          "internalType": "address",
          "name": "spender",
          "type": "address"
        }
      ],
      "name": "allowance",
      "outputs": [
        {
          "internalType": "uint256",
          "name": "",
          "type": "uint256"
        }
      ],
      "stateMutability": "view",
      "type": "function"
    },
    {
      "inputs": [
        {
          "internalType": "address",
          "name": "",
          "type": "address"
        }
      ],
      "name": "ammPairs",
      "outputs": [
        {
          "internalType": "bool",
          "name": "",
          "type": "bool"
        }
      ],
      "stateMutability": "view",
      "type": "function"
    },
    {
      "inputs": [
        {
          "internalType": "address",
          "name": "spender",
          "type": "address"
        },
        {
          "internalType": "uint256",
          "name": "value",
          "type": "uint256"
        }
      ],
      "name": "approve",
      "outputs": [
        {
          "internalType": "bool",
          "name": "",
          "type": "bool"
        }
      ],
      "stateMutability": "nonpayable",
      "type": "function"
    },
    {
      "inputs": [
        {
          "internalType": "address",
          "name": "account",
          "type": "address"
        }
      ],
      "name": "balanceOf",
      "outputs": [
        {
          "internalType": "uint256",
          "name": "",
          "type": "uint256"
        }
      ],
      "stateMutability": "view",
      "type": "function"
    },
    {
      "inputs": [],
      "name": "burnAddress",
      "outputs": [
        {
          "internalType": "address",
          "name": "",
          "type": "address"
        }
      ],
      "stateMutability": "view",
      "type": "function"
    },
    {
      "inputs": [],
      "name": "decimals",
      "outputs": [
        {
          "internalType": "uint8",
          "name": "",
          "type": "uint8"
        }
      ],
      "stateMutability": "view",
      "type": "function"
    },
    {
      "inputs": [],
      "name": "emergencyWithdrawETH",
      "outputs": [],
      "stateMutability": "nonpayable",
      "type": "function"
    },
    {
      "inputs": [
        {
          "internalType": "address",
          "name": "tokenAddress",
          "type": "address"
        }
      ],
      "name": "emergencyWithdrawToken",
      "outputs": [],
      "stateMutability": "nonpayable",
      "type": "function"
    },
    {
      "inputs": [
        {
          "internalType": "bool",
          "name": "_enabled",
          "type": "bool"
        }
      ],
      "name": "enableTrading",
      "outputs": [],
      "stateMutability": "nonpayable",
      "type": "function"
    },
    {
      "inputs": [],
      "name": "getTaxAllot",
      "outputs": [
        {
          "components": [
            {
              "internalType": "uint256",
              "name": "liquidity",
              "type": "uint256"
            },
            {
              "internalType": "uint256",
              "name": "marketing",
              "type": "uint256"
            },
            {
              "internalType": "uint256",
              "name": "burn",
              "type": "uint256"
            }
          ],
          "internalType": "struct ShiBaToken.TaxAllot",
          "name": "",
          "type": "tuple"
        }
      ],
      "stateMutability": "view",
      "type": "function"
    },
    {
      "inputs": [],
      "name": "getTaxRate",
      "outputs": [
        {
          "components": [
            {
              "internalType": "uint256",
              "name": "buyTax",
              "type": "uint256"
            },
            {
              "internalType": "uint256",
              "name": "sellTax",
              "type": "uint256"
            },
            {
              "internalType": "uint256",
              "name": "transferTax",
              "type": "uint256"
            }
          ],
          "internalType": "struct ShiBaToken.TaxRate",
          "name": "",
          "type": "tuple"
        }
      ],
      "stateMutability": "view",
      "type": "function"
    },
    {
      "inputs": [],
      "name": "getTokenInfo",
      "outputs": [
        {
          "internalType": "uint256",
          "name": "totalSupply_",
          "type": "uint256"
        },
        {
          "internalType": "uint256",
          "name": "circulatingSupply_",
          "type": "uint256"
        },
        {
          "internalType": "uint256",
          "name": "balanceContract_",
          "type": "uint256"
        },
        {
          "internalType": "uint256",
          "name": "burnedBalance_",
          "type": "uint256"
        },
        {
          "internalType": "bool",
          "name": "tradingEnabled_",
          "type": "bool"
        },
        {
          "internalType": "bool",
          "name": "swapEnabled_",
          "type": "bool"
        }
      ],
      "stateMutability": "view",
      "type": "function"
    },
    {
      "inputs": [],
      "name": "getTradeLimit",
      "outputs": [
        {
          "components": [
            {
              "internalType": "uint256",
              "name": "maxTxAmount",
              "type": "uint256"
            },
            {
              "internalType": "uint256",
              "name": "maxWalletAmount",
              "type": "uint256"
            },
            {
              "internalType": "uint256",
              "name": "minTimeBetweenTx",
              "type": "uint256"
            },
            {
              "internalType": "bool",
              "name": "isTradeLimit",
              "type": "bool"
            }
          ],
          "internalType": "struct ShiBaToken.TradeLimit",
          "name": "",
          "type": "tuple"
        }
      ],
      "stateMutability": "view",
      "type": "function"
    },
    {
      "inputs": [],
      "name": "handeSwapAndLiquify",
      "outputs": [],
      "stateMutability": "nonpayable",
      "type": "function"
    },
    {
      "inputs": [],
      "name": "inSwap",
      "outputs": [
        {
          "internalType": "bool",
          "name": "",
          "type": "bool"
        }
      ],
      "stateMutability": "view",
      "type": "function"
    },
    {
      "inputs": [
        {
          "internalType": "address",
          "name": "",
          "type": "address"
        }
      ],
      "name": "isBlacklisted",
      "outputs": [
        {
          "internalType": "bool",
          "name": "",
          "type": "bool"
        }
      ],
      "stateMutability": "view",
      "type": "function"
    },
    {
      "inputs": [
        {
          "internalType": "address",
          "name": "",
          "type": "address"
        }
      ],
      "name": "isExcludedFromFee",
      "outputs": [
        {
          "internalType": "bool",
          "name": "",
          "type": "bool"
        }
      ],
      "stateMutability": "view",
      "type": "function"
    },
    {
      "inputs": [
        {
          "internalType": "address",
          "name": "",
          "type": "address"
        }
      ],
      "name": "isExcludedLimit",
      "outputs": [
        {
          "internalType": "bool",
          "name": "",
          "type": "bool"
        }
      ],
      "stateMutability": "view",
      "type": "function"
    },
    {
      "inputs": [
        {
          "internalType": "address",
          "name": "",
          "type": "address"
        }
      ],
      "name": "lastTxTime",
      "outputs": [
        {
          "internalType": "uint256",
          "name": "",
          "type": "uint256"
        }
      ],
      "stateMutability": "view",
      "type": "function"
    },
    {
      "inputs": [],
      "name": "liquidityWallet",
      "outputs": [
        {
          "internalType": "address",
          "name": "",
          "type": "address"
        }
      ],
      "stateMutability": "view",
      "type": "function"
    },
    {
      "inputs": [],
      "name": "marketingWallet",
      "outputs": [
        {
          "internalType": "address",
          "name": "",
          "type": "address"
        }
      ],
      "stateMutability": "view",
      "type": "function"
    },
    {
      "inputs": [],
      "name": "name",
      "outputs": [
        {
          "internalType": "string",
          "name": "",
          "type": "string"
        }
      ],
      "stateMutability": "view",
      "type": "function"
    },
    {
      "inputs": [],
      "name": "owner",
      "outputs": [
        {
          "internalType": "address",
          "name": "",
          "type": "address"
        }
      ],
      "stateMutability": "view",
      "type": "function"
    },
    {
      "inputs": [],
      "name": "renounceOwnership",
      "outputs": [],
      "stateMutability": "nonpayable",
      "type": "function"
    },
    {
      "inputs": [
        {
          "internalType": "address",
          "name": "account",
          "type": "address"
        },
        {
          "internalType": "bool",
          "name": "blacklisted",
          "type": "bool"
        }
      ],
      "name": "setBlacklisted",
      "outputs": [],
      "stateMutability": "nonpayable",
      "type": "function"
    },
    {
      "inputs": [
        {
          "internalType": "address",
          "name": "_burnAddress",
          "type": "address"
        }
      ],
      "name": "setBurnAddress",
      "outputs": [],
      "stateMutability": "nonpayable",
      "type": "function"
    },
    {
      "inputs": [
        {
          "internalType": "address",
          "name": "account",
          "type": "address"
        },
        {
          "internalType": "bool",
          "name": "excluded",
          "type": "bool"
        }
      ],
      "name": "setExcludedFromFee",
      "outputs": [],
      "stateMutability": "nonpayable",
      "type": "function"
    },
    {
      "inputs": [
        {
          "internalType": "address",
          "name": "account",
          "type": "address"
        },
        {
          "internalType": "bool",
          "name": "excluded",
          "type": "bool"
        }
      ],
      "name": "setExcludedFromLimit",
      "outputs": [],
      "stateMutability": "nonpayable",
      "type": "function"
    },
    {
      "inputs": [
        {
          "internalType": "address",
          "name": "_liquidityWallet",
          "type": "address"
        }
      ],
      "name": "setLiquidityWallet",
      "outputs": [],
      "stateMutability": "nonpayable",
      "type": "function"
    },
    {
      "inputs": [
        {
          "internalType": "address",
          "name": "_marketingWallet",
          "type": "address"
        }
      ],
      "name": "setMarketingWallet",
      "outputs": [],
      "stateMutability": "nonpayable",
      "type": "function"
    },
    {
      "inputs": [
        {
          "components": [
            {
              "internalType": "uint256",
              "name": "liquidity",
              "type": "uint256"
            },
            {
              "internalType": "uint256",
              "name": "marketing",
              "type": "uint256"
            },
            {
              "internalType": "uint256",
              "name": "burn",
              "type": "uint256"
            }
          ],
          "internalType": "struct ShiBaToken.TaxAllot",
          "name": "_allot",
          "type": "tuple"
        }
      ],
      "name": "setTaxAllot",
      "outputs": [],
      "stateMutability": "nonpayable",
      "type": "function"
    },
    {
      "inputs": [
        {
          "components": [
            {
              "internalType": "uint256",
              "name": "buyTax",
              "type": "uint256"
            },
            {
              "internalType": "uint256",
              "name": "sellTax",
              "type": "uint256"
            },
            {
              "internalType": "uint256",
              "name": "transferTax",
              "type": "uint256"
            }
          ],
          "internalType": "struct ShiBaToken.TaxRate",
          "name": "_tax",
          "type": "tuple"
        }
      ],
      "name": "setTaxRate",
      "outputs": [],
      "stateMutability": "nonpayable",
      "type": "function"
    },
    {
      "inputs": [
        {
          "components": [
            {
              "internalType": "uint256",
              "name": "maxTxAmount",
              "type": "uint256"
            },
            {
              "internalType": "uint256",
              "name": "maxWalletAmount",
              "type": "uint256"
            },
            {
              "internalType": "uint256",
              "name": "minTimeBetweenTx",
              "type": "uint256"
            },
            {
              "internalType": "bool",
              "name": "isTradeLimit",
              "type": "bool"
            }
          ],
          "internalType": "struct ShiBaToken.TradeLimit",
          "name": "_limit",
          "type": "tuple"
        }
      ],
      "name": "setTradeLimit",
      "outputs": [],
      "stateMutability": "nonpayable",
      "type": "function"
    },
    {
      "inputs": [],
      "name": "swapEnabled",
      "outputs": [
        {
          "internalType": "bool",
          "name": "",
          "type": "bool"
        }
      ],
      "stateMutability": "view",
      "type": "function"
    },
    {
      "inputs": [],
      "name": "swapThreshold",
      "outputs": [
        {
          "internalType": "uint256",
          "name": "",
          "type": "uint256"
        }
      ],
      "stateMutability": "view",
      "type": "function"
    },
    {
      "inputs": [],
      "name": "symbol",
      "outputs": [
        {
          "internalType": "string",
          "name": "",
          "type": "string"
        }
      ],
      "stateMutability": "view",
      "type": "function"
    },
    {
      "inputs": [],
      "name": "taxAllot",
      "outputs": [
        {
          "internalType": "uint256",
          "name": "liquidity",
          "type": "uint256"
        },
        {
          "internalType": "uint256",
          "name": "marketing",
          "type": "uint256"
        },
        {
          "internalType": "uint256",
          "name": "burn",
          "type": "uint256"
        }
      ],
      "stateMutability": "view",
      "type": "function"
    },
    {
      "inputs": [],
      "name": "taxRate",
      "outputs": [
        {
          "internalType": "uint256",
          "name": "buyTax",
          "type": "uint256"
        },
        {
          "internalType": "uint256",
          "name": "sellTax",
          "type": "uint256"
        },
        {
          "internalType": "uint256",
          "name": "transferTax",
          "type": "uint256"
        }
      ],
      "stateMutability": "view",
      "type": "function"
    },
    {
      "inputs": [],
      "name": "totalSupply",
      "outputs": [
        {
          "internalType": "uint256",
          "name": "",
          "type": "uint256"
        }
      ],
      "stateMutability": "view",
      "type": "function"
    },
    {
      "inputs": [],
      "name": "tradeLimit",
      "outputs": [
        {
          "internalType": "uint256",
          "name": "maxTxAmount",
          "type": "uint256"
        },
        {
          "internalType": "uint256",
          "name": "maxWalletAmount",
          "type": "uint256"
        },
        {
          "internalType": "uint256",
          "name": "minTimeBetweenTx",
          "type": "uint256"
        },
        {
          "internalType": "bool",
          "name": "isTradeLimit",
          "type": "bool"
        }
      ],
      "stateMutability": "view",
      "type": "function"
    },
    {
      "inputs": [],
      "name": "tradingEnabled",
      "outputs": [
        {
          "internalType": "bool",
          "name": "",
          "type": "bool"
        }
      ],
      "stateMutability": "view",
      "type": "function"
    },
    {
      "inputs": [
        {
          "internalType": "address",
          "name": "to",
          "type": "address"
        },
        {
          "internalType": "uint256",
          "name": "value",
          "type": "uint256"
        }
      ],
      "name": "transfer",
      "outputs": [
        {
          "internalType": "bool",
          "name": "",
          "type": "bool"
        }
      ],
      "stateMutability": "nonpayable",
      "type": "function"
    },
    {
      "inputs": [
        {
          "internalType": "address",
          "name": "from",
          "type": "address"
        },
        {
          "internalType": "address",
          "name": "to",
          "type": "address"
        },
        {
          "internalType": "uint256",
          "name": "value",
          "type": "uint256"
        }
      ],
      "name": "transferFrom",
      "outputs": [
        {
          "internalType": "bool",
          "name": "",
          "type": "bool"
        }
      ],
      "stateMutability": "nonpayable",
      "type": "function"
    },
    {
      "inputs": [
        {
          "internalType": "address",
          "name": "newOwner",
          "type": "address"
        }
      ],
      "name": "transferOwnership",
      "outputs": [],
      "stateMutability": "nonpayable",
      "type": "function"
    },
    {
      "inputs": [],
      "name": "uniswapV2Pair",
      "outputs": [
        {
          "internalType": "address",
          "name": "",
          "type": "address"
        }
      ],
      "stateMutability": "view",
      "type": "function"
    },
    {
      "inputs": [],
      "name": "uniswapV2Router",
      "outputs": [
        {
          "internalType": "contract IUniswapV2Router02",
          "name": "",
          "type": "address"
        }
      ],
      "stateMutability": "view",
      "type": "function"
    },
    {
      "stateMutability": "payable",
      "type": "receive"
    }
  ],
  "transactionHash": "0xcb4d76bb8b3d6d5cf1e6c4e74a4a18c458f427351f496bab705a12637160890f",
  "args": [
    "0x70997970C51812dc3A010C7d01b50e0d17dc79C8",
    "0x3C44CdDdB6a900fa2b585dd299e03d12FA4293BC",
    "0x000000000000000000000000000000000000dEaD",
    "0x9fE46736679d2D9a65F0992F2272dE9f3c7fa6e0"
  ],
  "numDeployments": 1,
  "solcInputHash": "a1d2021959bc9f2afd9be4615684e128",
  "bytecode": "0x6080604052601380546001600160a01b03191661dead17905534801561002457600080fd5b50604051613a5d380380613a5d8339810160408190526100439161131b565b336040518060400160405280600a81526020016929b434a130aa37b5b2b760b11b8152506040518060400160405280600681526020016514d21250905560d21b81525081600390816100959190611406565b5060046100a28282611406565b5050506001600160a01b0381166100d457604051631e4fbdf760e01b8152600060048201526024015b60405180910390fd5b6100dd816105b6565b50601180546001600160a01b038087166001600160a01b0319928316179092556012805486841690831617905560138054858416921691909117905581166101675760405162461bcd60e51b815260206004820152601660248201527f726f757465722061646472657373206973207a65726f0000000000000000000060448201526064016100cb565b60408051808201909152601c81527f546f6b656e20436f6e7374727563746f723a20526f757465722069730000000060208201526101a59082610608565b601480546001600160a01b0319166001600160a01b0383169081179091556040805163c45a015560e01b8152905163c45a0155916004808201926020929091908290030181865afa1580156101fe573d6000803e3d6000fd5b505050506040513d601f19601f8201168201806040525081019061022291906114c4565b6001600160a01b031663c9c6539630601460009054906101000a90046001600160a01b03166001600160a01b031663ad5c46486040518163ffffffff1660e01b8152600401602060405180830381865afa158015610284573d6000803e3d6000fd5b505050506040513d601f19601f820116820180604052508101906102a891906114c4565b6040516001600160e01b031960e085901b1681526001600160a01b039283166004820152911660248201526044016020604051808303816000875af11580156102f5573d6000803e3d6000fd5b505050506040513d601f19601f8201168201806040525081019061031991906114c4565b601580546001600160a01b0319166001600160a01b039290921691821790556000908152601860205260409020805460ff1916600117905560408051606080820183526101f48083526103e8602080850182905260c8948601859052600783905560089190915560098490558451928301855261012c808452908301829052918401839052600a91909155600b55600c55805160808101909152806127106103ce6b033b2e3c9fd0803ce800000060016114fc565b6103d89190611519565b815260200160646103f66b033b2e3c9fd0803ce800000060016114fc565b6104009190611519565b8152600a602080830191909152600160409283018190528351600d5590830151600e5590820151600f556060909101516010805460ff1916911515919091179055620186a09061045d906b033b2e3c9fd0803ce8000000906114fc565b6104679190611519565b6006553360008181526016602090815260408083208054600160ff199182168117909255308086528386208054831684179055601580546001600160a01b0390811688528588208054851686179055601180548216895286892080548616871790556012805483168a52878a2080548716881790556013805484168b52888b2080548816891790558b8b526017909952878a20805487168817905593895286892080548616871790559154811688528588208054851686179055905481168752848720805484168517905590548116865283862080548316841790559354909316845292208054909116909117905561056c906b033b2e3c9fd0803ce8000000610655565b6040516b033b2e3c9fd0803ce8000000815233907f80fa8d9521748efec3039c73aca4ebaa5ed141c05f418f8f851e048d16b6cc579060200160405180910390a2505050506116bd565b600580546001600160a01b038381166001600160a01b0319831681179093556040519116919082907f8be0079c531659141344cd1fd0a4f28419497f9722a3daafe3b4186f6b6457e090600090a35050565b610651828260405160240161061e929190611581565b60408051601f198184030181529190526020810180516001600160e01b0390811663319af33360e01b1790915261068b16565b5050565b6001600160a01b03821661067f5760405163ec442f0560e01b8152600060048201526024016100cb565b610651600083836106a1565b61069e8161093660201b61117c1760201c565b50565b6106c5604051806060016040528060228152602001613a3b60229139848484610957565b6001600160a01b03831615610926576001600160a01b03821661072a5760405162461bcd60e51b815260206004820152601860248201527f7472616e7366657220746f207a65726f2061646472657373000000000000000060448201526064016100cb565b6001600160a01b0383166000908152601a602052604090205460ff1615801561076c57506001600160a01b0382166000908152601a602052604090205460ff16155b6107c35760405162461bcd60e51b815260206004820152602260248201527f73656e646572206f7220726563697069656e7420697320626c61636b6c697374604482015261195960f21b60648201526084016100cb565b60105460ff16156107d9576107d98383836109aa565b601554600160a81b900460ff1680156107fc5750601554600160b01b900460ff16155b801561082157506001600160a01b03831660009081526018602052604090205460ff16155b801561084657506001600160a01b03831660009081526016602052604090205460ff16155b801561086b57506001600160a01b03821660009081526016602052604090205460ff16155b801561088857506006543060009081526020819052604090205410155b156108995760065461089990610bec565b6015546001600160a01b03841660009081526016602052604090205460ff600160b01b9092048216159116806108e757506001600160a01b03831660009081526016602052604090205460ff165b156108f0575060005b6000811561092357610903858585610dee565b9050801561092357610916853083610e8b565b61092081846115ab565b92505b50505b610931838383610e8b565b505050565b60006a636f6e736f6c652e6c6f679050600080835160208501845afa505050565b6109a48484848460405160240161097194939291906115be565b60408051601f198184030181529190526020810180516001600160e01b03908116638ef3f39960e01b1790915261068b16565b50505050565b6001600160a01b03831660009081526017602052604090205460ff161580156109ec57506001600160a01b03821660009081526017602052604090205460ff16155b15610a5357600d548110610a535760405162461bcd60e51b815260206004820152602860248201527f5472616e7366657220616d6f756e74206578636565647320746865206d6178546044820152673c20b6b7bab73a1760c11b60648201526084016100cb565b6001600160a01b03821660009081526017602052604090205460ff16610afc576001600160a01b038216600090815260208190526040902054600e54610a9983836115f4565b1115610afa5760405162461bcd60e51b815260206004820152602a60248201527f526563697069656e742062616c616e63652065786365656473206d617857616c6044820152693632ba20b6b7bab73a1760b11b60648201526084016100cb565b505b6001600160a01b03831660009081526017602052604090205460ff16158015610b265750600f5415155b8015610b4a57506001600160a01b03821660009081526018602052604090205460ff165b1561093157600f546001600160a01b038416600090815260196020526040902054610b7591906115f4565b421015610bce5760405162461bcd60e51b815260206004820152602160248201527f506c656173652077616974206265747765656e207472616e73616374696f6e736044820152601760f91b60648201526084016100cb565b50506001600160a01b03166000908152601960205260409020429055565b6015805460ff60b01b1916600160b01b17905580610c375760405162461bcd60e51b81526020600482015260086024820152673737903a37b5b2b760c11b60448201526064016100cb565b600c54600b54600a5460009291610c4d916115f4565b610c5791906115f4565b905060008111610c945760405162461bcd60e51b81526020600482015260086024820152671b9bc8185b1b1bdd60c21b60448201526064016100cb565b6000600282600a6000015485610caa91906114fc565b610cb49190611519565b610cbe9190611519565b9050600082600a6002015485610cd491906114fc565b610cde9190611519565b90508015610cfe57601354610cfe9030906001600160a01b031683610fb5565b600081610d0b84876115ab565b610d1591906115ab565b905047610d2182611014565b6000610d2d82476115ab565b905060006002600a6002015488610d4491906115ab565b600a54610d5190856114fc565b610d5b9190611519565b610d659190611519565b90506000610d7382846115ab565b9050600082118015610d855750600087115b15610d9457610d94878361116e565b8015610dd6576011546040516001600160a01b039091169082156108fc029083906000818181858888f19350505050158015610dd4573d6000803e3d6000fd5b505b50506015805460ff60b01b1916905550505050505050565b6001600160a01b038316600090815260186020526040812054819060ff1615610e335760075461271090610e2290856114fc565b610e2c9190611519565b9050610e83565b6001600160a01b03841660009081526018602052604090205460ff1615610e655760085461271090610e2290856114fc565b60095461271090610e7690856114fc565b610e809190611519565b90505b949350505050565b6001600160a01b038316610eb6578060026000828254610eab91906115f4565b90915550610f289050565b6001600160a01b03831660009081526020819052604090205481811015610f095760405163391434e360e21b81526001600160a01b038516600482015260248101829052604481018390526064016100cb565b6001600160a01b03841660009081526020819052604090209082900390555b6001600160a01b038216610f4457600280548290039055610f63565b6001600160a01b03821660009081526020819052604090208054820190555b816001600160a01b0316836001600160a01b03167fddf252ad1be2c89b69c2b068fc378daa952ba7f163c4a11628f55a4df523b3ef83604051610fa891815260200190565b60405180910390a3505050565b6001600160a01b038316610fdf57604051634b637e8f60e11b8152600060048201526024016100cb565b6001600160a01b0382166110095760405163ec442f0560e01b8152600060048201526024016100cb565b6109318383836106a1565b604080516002808252606082018352600092602083019080368337019050509050308160008151811061104957611049611607565b6001600160a01b03928316602091820292909201810191909152601454604080516315ab88c960e31b81529051919093169263ad5c46489260048083019391928290030181865afa1580156110a2573d6000803e3d6000fd5b505050506040513d601f19601f820116820180604052508101906110c691906114c4565b816001815181106110d9576110d9611607565b6001600160a01b0392831660209182029290920101526014546110ff9130911684611222565b60145460405163791ac94760e01b81526001600160a01b039091169063791ac9479061113890859060009086903090429060040161161d565b600060405180830381600087803b15801561115257600080fd5b505af1158015611166573d6000803e3d6000fd5b505050505050565b6014546111869030906001600160a01b031684611222565b60145460125460405163f305d71960e01b81523060048201526024810185905260006044820181905260648201526001600160a01b0391821660848201524260a482015291169063f305d71990839060c40160606040518083038185885af11580156111f6573d6000803e3d6000fd5b50505050506040513d601f19601f8201168201806040525081019061121b919061168f565b5050505050565b61093183838360016001600160a01b0384166112545760405163e602df0560e01b8152600060048201526024016100cb565b6001600160a01b03831661127e57604051634a1406b160e11b8152600060048201526024016100cb565b6001600160a01b03808516600090815260016020908152604080832093871683529290522082905580156109a457826001600160a01b0316846001600160a01b03167f8c5be1e5ebec7d5bd14f71427d1e84f3dd0314c0f7b2291e5b200ac8c7c3b925846040516112f191815260200190565b60405180910390a350505050565b80516001600160a01b038116811461131657600080fd5b919050565b6000806000806080858703121561133157600080fd5b61133a856112ff565b9350611348602086016112ff565b9250611356604086016112ff565b9150611364606086016112ff565b905092959194509250565b634e487b7160e01b600052604160045260246000fd5b600181811c9082168061139957607f821691505b6020821081036113b957634e487b7160e01b600052602260045260246000fd5b50919050565b601f82111561093157806000526020600020601f840160051c810160208510156113e65750805b601f840160051c820191505b8181101561121b57600081556001016113f2565b81516001600160401b0381111561141f5761141f61136f565b6114338161142d8454611385565b846113bf565b6020601f821160018114611467576000831561144f5750848201515b600019600385901b1c1916600184901b17845561121b565b600084815260208120601f198516915b828110156114975787850151825560209485019460019092019101611477565b50848210156114b55786840151600019600387901b60f8161c191681555b50505050600190811b01905550565b6000602082840312156114d657600080fd5b6114df826112ff565b9392505050565b634e487b7160e01b600052601160045260246000fd5b8082028115828204841417611513576115136114e6565b92915050565b60008261153657634e487b7160e01b600052601260045260246000fd5b500490565b6000815180845260005b8181101561156157602081850181015186830182015201611545565b506000602082860101526020601f19601f83011685010191505092915050565b604081526000611594604083018561153b565b905060018060a01b03831660208301529392505050565b81810381811115611513576115136114e6565b6080815260006115d1608083018761153b565b6001600160a01b0395861660208401529390941660408201526060015292915050565b80820180821115611513576115136114e6565b634e487b7160e01b600052603260045260246000fd5b600060a0820187835286602084015260a0604084015280865180835260c08501915060208801925060005b8181101561166f5783516001600160a01b0316835260209384019390920191600101611648565b50506001600160a01b039590951660608401525050608001529392505050565b6000806000606084860312156116a457600080fd5b5050815160208301516040909301519094929350919050565b61236f806116cc6000396000f3fe6080604052600436106102815760003560e01c8063715018a61161014f578063b2485d72116100c1578063d83067861161007a578063d830678614610862578063dd62ed3e14610883578063e1415c01146108c9578063f275f64b146108e9578063f2fde38b14610909578063fe575a871461092957600080fd5b8063b2485d72146107ab578063bf78019b146107cb578063cb66667f146107eb578063d01dd6d21461080d578063d0e92ad11461082d578063d46980161461084257600080fd5b80638da5cb5b116101135780638da5cb5b146106cd57806395d89b41146106eb578063a629ee2914610700578063a72905a214610715578063a9059cbb14610745578063abb1dc441461076557600080fd5b8063715018a61461064457806375f0a87414610659578063771a3a1d146106795780637c0403a41461069857806384536017146106b857600080fd5b8063313ce567116101f35780635d098b38116101ac5780635d098b381461055d5780636612e66f1461057d578063673c6dc21461059d5780636ddd1713146105cd57806370a08231146105ee57806370d5ae051461062457600080fd5b8063313ce567146104765780634709eb871461049257806349bd5a5e146104cc5780634ada218b146104ec5780634b0e72161461050d5780635342acb41461052d57600080fd5b806318160ddd1161024557806318160ddd1461036d5780631af032031461038257806323b872dd146103a4578063296f0a0c146103c45780632ad0a383146103e45780632fec27041461042e57600080fd5b80630445b6671461028d57806306fdde03146102b6578063095ea7b3146102d85780631694505e1461030857806317d636051461034057600080fd5b3661028857005b600080fd5b34801561029957600080fd5b506102a360065481565b6040519081526020015b60405180910390f35b3480156102c257600080fd5b506102cb610959565b6040516102ad9190611f1e565b3480156102e457600080fd5b506102f86102f3366004611f4d565b6109eb565b60405190151581526020016102ad565b34801561031457600080fd5b50601454610328906001600160a01b031681565b6040516001600160a01b0390911681526020016102ad565b34801561034c57600080fd5b506102a361035b366004611f79565b60196020526000908152604090205481565b34801561037957600080fd5b506002546102a3565b34801561038e57600080fd5b506103a261039d366004611f79565b610a05565b005b3480156103b057600080fd5b506102f86103bf366004611f96565b610b6a565b3480156103d057600080fd5b506103a26103df366004611f79565b610b8e565b3480156103f057600080fd5b506103f9610bb8565b6040516102ad919081518152602080830151908201526040808301519082015260609182015115159181019190915260800190565b34801561043a57600080fd5b50600d54600e54600f546010546104549392919060ff1684565b60408051948552602085019390935291830152151560608201526080016102ad565b34801561048257600080fd5b50604051601281526020016102ad565b34801561049e57600080fd5b50600a54600b54600c546104b192919083565b604080519384526020840192909252908201526060016102ad565b3480156104d857600080fd5b50601554610328906001600160a01b031681565b3480156104f857600080fd5b506015546102f890600160a01b900460ff1681565b34801561051957600080fd5b506103a2610528366004611f79565b610c17565b34801561053957600080fd5b506102f8610548366004611f79565b60166020526000908152604090205460ff1681565b34801561056957600080fd5b506103a2610578366004611f79565b610c41565b34801561058957600080fd5b506103a2610598366004611fe5565b610c6b565b3480156105a957600080fd5b506102f86105b8366004611f79565b60176020526000908152604090205460ff1681565b3480156105d957600080fd5b506015546102f890600160a81b900460ff1681565b3480156105fa57600080fd5b506102a3610609366004611f79565b6001600160a01b031660009081526020819052604090205490565b34801561063057600080fd5b50601354610328906001600160a01b031681565b34801561065057600080fd5b506103a2610c9e565b34801561066557600080fd5b50601154610328906001600160a01b031681565b34801561068557600080fd5b506007546008546009546104b192919083565b3480156106a457600080fd5b506103a26106b3366004612036565b610cb2565b3480156106c457600080fd5b506103a2610d42565b3480156106d957600080fd5b506005546001600160a01b0316610328565b3480156106f757600080fd5b506102cb610dbf565b34801561070c57600080fd5b506103a2610dce565b34801561072157600080fd5b506102f8610730366004611f79565b60186020526000908152604090205460ff1681565b34801561075157600080fd5b506102f8610760366004611f4d565b610e2a565b34801561077157600080fd5b5061077a610e38565b60408051968752602087019590955293850192909252606084015215156080830152151560a082015260c0016102ad565b3480156107b757600080fd5b506103a26107c6366004612052565b610eab565b3480156107d757600080fd5b506103a26107e6366004611fe5565b610ec0565b3480156107f757600080fd5b50610800610ef3565b6040516102ad919061206d565b34801561081957600080fd5b506103a2610828366004611fe5565b610f3c565b34801561083957600080fd5b50610800610f6f565b34801561084e57600080fd5b50601254610328906001600160a01b031681565b34801561086e57600080fd5b506015546102f890600160b01b900460ff1681565b34801561088f57600080fd5b506102a361089e36600461208e565b6001600160a01b03918216600090815260016020908152604080832093909416825291909152205490565b3480156108d557600080fd5b506103a26108e4366004612036565b610fb8565b3480156108f557600080fd5b506103a26109043660046120bc565b6110d4565b34801561091557600080fd5b506103a2610924366004611f79565b611141565b34801561093557600080fd5b506102f8610944366004611f79565b601a6020526000908152604090205460ff1681565b606060038054610968906120d9565b80601f0160208091040260200160405190810160405280929190818152602001828054610994906120d9565b80156109e15780601f106109b6576101008083540402835291602001916109e1565b820191906000526020600020905b8154815290600101906020018083116109c457829003601f168201915b5050505050905090565b6000336109f981858561119d565b60019150505b92915050565b610a0d6111aa565b306001600160a01b03821603610a2257600080fd5b6040516370a0823160e01b815230600482015281906000906001600160a01b038316906370a0823190602401602060405180830381865afa158015610a6b573d6000803e3d6000fd5b505050506040513d601f19601f82011682018060405250810190610a8f919061210d565b905060008111610ad25760405162461bcd60e51b81526020600482015260096024820152686e6f20746f6b656e7360b81b60448201526064015b60405180910390fd5b816001600160a01b031663a9059cbb610af36005546001600160a01b031690565b6040516001600160e01b031960e084901b1681526001600160a01b039091166004820152602481018490526044016020604051808303816000875af1158015610b40573d6000803e3d6000fd5b505050506040513d601f19601f82011682018060405250810190610b649190612126565b50505050565b600033610b788582856111d7565b610b83858585611250565b506001949350505050565b610b966111aa565b601280546001600160a01b0319166001600160a01b0392909216919091179055565b610be560405180608001604052806000815260200160008152602001600081526020016000151581525090565b5060408051608081018252600d548152600e546020820152600f549181019190915260105460ff161515606082015290565b610c1f6111aa565b601380546001600160a01b0319166001600160a01b0392909216919091179055565b610c496111aa565b601180546001600160a01b0319166001600160a01b0392909216919091179055565b610c736111aa565b6001600160a01b03919091166000908152601660205260409020805460ff1916911515919091179055565b610ca66111aa565b610cb060006112af565b565b610cba6111aa565b6040810135610cce60208301358335612159565b610cd89190612159565b606414610d275760405162461bcd60e51b815260206004820181905260248201527f546f74616c2074617820616c6c6f636174696f6e206d757374206265203130306044820152606401610ac9565b8035600a556020810135600b5560400135600c55565b505050565b610d4a6111aa565b4780610d815760405162461bcd60e51b81526020600482015260066024820152650dcde40cae8d60d31b6044820152606401610ac9565b6005546040516001600160a01b039091169082156108fc029083906000818181858888f19350505050158015610dbb573d6000803e3d6000fd5b5050565b606060048054610968906120d9565b610dd66111aa565b3060009081526020819052604090205480610e1e5760405162461bcd60e51b81526020600482015260086024820152673737903a37b5b2b760c11b6044820152606401610ac9565b610e2781611301565b50565b6000336109f9818585611250565b600080600080600080610e4a60025490565b306000908152602081905260409020549096509350610e69848761216c565b6013546001600160a01b0316600090815260208190526040902054601554979891979596509460ff600160a01b820481169550600160a81b9091041692509050565b610eb36111aa565b80600d610d3d828261217f565b610ec86111aa565b6001600160a01b03919091166000908152601760205260409020805460ff1916911515919091179055565b610f1760405180606001604052806000815260200160008152602001600081525090565b5060408051606081018252600754815260085460208201526009549181019190915290565b610f446111aa565b6001600160a01b03919091166000908152601a60205260409020805460ff1916911515919091179055565b610f9360405180606001604052806000815260200160008152602001600081525090565b5060408051606081018252600a548152600b546020820152600c549181019190915290565b610fc06111aa565b612710813511801590610fd95750612710816020013511155b8015610feb5750612710816040013511155b6110455760405162461bcd60e51b815260206004820152602560248201527f546178207261746573206d757374206265206265747765656e203020616e6420604482015264031303030360dc1b6064820152608401610ac9565b612710604082013561105c60208401358435612159565b6110669190612159565b11156110be5760405162461bcd60e51b815260206004820152602160248201527f746f74616c207261746573206d757374206c657373207468616e2031303030306044820152600360fc1b6064820152608401610ac9565b8035600755602081013560085560400135600955565b6110dc6111aa565b6015805461ffff60a01b1916600160a01b83151590810260ff60a81b191691909117600160a81b82021790915560405190815233907f9531fb57e28b202749c276a8b0b27cb64790b00f4b3c1c8ee67462cc85ca3b239060200160405180910390a250565b6111496111aa565b6001600160a01b03811661117357604051631e4fbdf760e01b815260006004820152602401610ac9565b610e27816112af565b60006a636f6e736f6c652e6c6f679050600080835160208501845afa505050565b610d3d8383836001611503565b6005546001600160a01b03163314610cb05760405163118cdaa760e01b8152336004820152602401610ac9565b6001600160a01b03838116600090815260016020908152604080832093861683529290522054600019811015610b64578181101561124157604051637dc7a0d960e11b81526001600160a01b03841660048201526024810182905260448101839052606401610ac9565b610b6484848484036000611503565b6001600160a01b03831661127a57604051634b637e8f60e11b815260006004820152602401610ac9565b6001600160a01b0382166112a45760405163ec442f0560e01b815260006004820152602401610ac9565b610d3d8383836115d8565b600580546001600160a01b038381166001600160a01b0319831681179093556040519116919082907f8be0079c531659141344cd1fd0a4f28419497f9722a3daafe3b4186f6b6457e090600090a35050565b6015805460ff60b01b1916600160b01b1790558061134c5760405162461bcd60e51b81526020600482015260086024820152673737903a37b5b2b760c11b6044820152606401610ac9565b600c54600b54600a546000929161136291612159565b61136c9190612159565b9050600081116113a95760405162461bcd60e51b81526020600482015260086024820152671b9bc8185b1b1bdd60c21b6044820152606401610ac9565b6000600282600a60000154856113bf91906121bf565b6113c991906121d6565b6113d391906121d6565b9050600082600a60020154856113e991906121bf565b6113f391906121d6565b90508015611413576013546114139030906001600160a01b031683611250565b600081611420848761216c565b61142a919061216c565b90504761143682611867565b6000611442824761216c565b905060006002600a6002015488611459919061216c565b600a5461146690856121bf565b61147091906121d6565b61147a91906121d6565b90506000611488828461216c565b905060008211801561149a5750600087115b156114a9576114a987836119c1565b80156114eb576011546040516001600160a01b039091169082156108fc029083906000818181858888f193505050501580156114e9573d6000803e3d6000fd5b505b50506015805460ff60b01b1916905550505050505050565b6001600160a01b03841661152d5760405163e602df0560e01b815260006004820152602401610ac9565b6001600160a01b03831661155757604051634a1406b160e11b815260006004820152602401610ac9565b6001600160a01b0380851660009081526001602090815260408083209387168352929052208290558015610b6457826001600160a01b0316846001600160a01b03167f8c5be1e5ebec7d5bd14f71427d1e84f3dd0314c0f7b2291e5b200ac8c7c3b925846040516115ca91815260200190565b60405180910390a350505050565b6115fc60405180606001604052806022815260200161231860229139848484611a75565b6001600160a01b0383161561185c576001600160a01b0382166116615760405162461bcd60e51b815260206004820152601860248201527f7472616e7366657220746f207a65726f206164647265737300000000000000006044820152606401610ac9565b6001600160a01b0383166000908152601a602052604090205460ff161580156116a357506001600160a01b0382166000908152601a602052604090205460ff16155b6116fa5760405162461bcd60e51b815260206004820152602260248201527f73656e646572206f7220726563697069656e7420697320626c61636b6c697374604482015261195960f21b6064820152608401610ac9565b60105460ff161561171057611710838383611abe565b601554600160a81b900460ff1680156117335750601554600160b01b900460ff16155b801561175857506001600160a01b03831660009081526018602052604090205460ff16155b801561177d57506001600160a01b03831660009081526016602052604090205460ff16155b80156117a257506001600160a01b03821660009081526016602052604090205460ff16155b80156117bf57506006543060009081526020819052604090205410155b156117cf576117cf600654611301565b6015546001600160a01b03841660009081526016602052604090205460ff600160b01b90920482161591168061181d57506001600160a01b03831660009081526016602052604090205460ff165b15611826575060005b6000811561185957611839858585611d00565b905080156118595761184c853083611d9d565b611856818461216c565b92505b50505b610d3d838383611d9d565b604080516002808252606082018352600092602083019080368337019050509050308160008151811061189c5761189c6121f8565b6001600160a01b03928316602091820292909201810191909152601454604080516315ab88c960e31b81529051919093169263ad5c46489260048083019391928290030181865afa1580156118f5573d6000803e3d6000fd5b505050506040513d601f19601f82011682018060405250810190611919919061220e565b8160018151811061192c5761192c6121f8565b6001600160a01b039283166020918202929092010152601454611952913091168461119d565b60145460405163791ac94760e01b81526001600160a01b039091169063791ac9479061198b90859060009086903090429060040161222b565b600060405180830381600087803b1580156119a557600080fd5b505af11580156119b9573d6000803e3d6000fd5b505050505050565b6014546119d99030906001600160a01b03168461119d565b60145460125460405163f305d71960e01b81523060048201526024810185905260006044820181905260648201526001600160a01b0391821660848201524260a482015291169063f305d71990839060c40160606040518083038185885af1158015611a49573d6000803e3d6000fd5b50505050506040513d601f19601f82011682018060405250810190611a6e919061229d565b5050505050565b610b6484848484604051602401611a8f94939291906122cb565b60408051601f198184030181529190526020810180516001600160e01b0316638ef3f39960e01b179052611ec7565b6001600160a01b03831660009081526017602052604090205460ff16158015611b0057506001600160a01b03821660009081526017602052604090205460ff16155b15611b6757600d548110611b675760405162461bcd60e51b815260206004820152602860248201527f5472616e7366657220616d6f756e74206578636565647320746865206d6178546044820152673c20b6b7bab73a1760c11b6064820152608401610ac9565b6001600160a01b03821660009081526017602052604090205460ff16611c10576001600160a01b038216600090815260208190526040902054600e54611bad8383612159565b1115611c0e5760405162461bcd60e51b815260206004820152602a60248201527f526563697069656e742062616c616e63652065786365656473206d617857616c6044820152693632ba20b6b7bab73a1760b11b6064820152608401610ac9565b505b6001600160a01b03831660009081526017602052604090205460ff16158015611c3a5750600f5415155b8015611c5e57506001600160a01b03821660009081526018602052604090205460ff165b15610d3d57600f546001600160a01b038416600090815260196020526040902054611c899190612159565b421015611ce25760405162461bcd60e51b815260206004820152602160248201527f506c656173652077616974206265747765656e207472616e73616374696f6e736044820152601760f91b6064820152608401610ac9565b50506001600160a01b03166000908152601960205260409020429055565b6001600160a01b038316600090815260186020526040812054819060ff1615611d455760075461271090611d3490856121bf565b611d3e91906121d6565b9050611d95565b6001600160a01b03841660009081526018602052604090205460ff1615611d775760085461271090611d3490856121bf565b60095461271090611d8890856121bf565b611d9291906121d6565b90505b949350505050565b6001600160a01b038316611dc8578060026000828254611dbd9190612159565b90915550611e3a9050565b6001600160a01b03831660009081526020819052604090205481811015611e1b5760405163391434e360e21b81526001600160a01b03851660048201526024810182905260448101839052606401610ac9565b6001600160a01b03841660009081526020819052604090209082900390555b6001600160a01b038216611e5657600280548290039055611e75565b6001600160a01b03821660009081526020819052604090208054820190555b816001600160a01b0316836001600160a01b03167fddf252ad1be2c89b69c2b068fc378daa952ba7f163c4a11628f55a4df523b3ef83604051611eba91815260200190565b60405180910390a3505050565b610e278161117c565b610cb0612301565b6000815180845260005b81811015611efe57602081850181015186830182015201611ee2565b506000602082860101526020601f19601f83011685010191505092915050565b602081526000611f316020830184611ed8565b9392505050565b6001600160a01b0381168114610e2757600080fd5b60008060408385031215611f6057600080fd5b8235611f6b81611f38565b946020939093013593505050565b600060208284031215611f8b57600080fd5b8135611f3181611f38565b600080600060608486031215611fab57600080fd5b8335611fb681611f38565b92506020840135611fc681611f38565b929592945050506040919091013590565b8015158114610e2757600080fd5b60008060408385031215611ff857600080fd5b823561200381611f38565b9150602083013561201381611fd7565b809150509250929050565b60006060828403121561203057600080fd5b50919050565b60006060828403121561204857600080fd5b611f31838361201e565b6000608082840312801561206557600080fd5b509092915050565b815181526020808301519082015260408083015190820152606081016109ff565b600080604083850312156120a157600080fd5b82356120ac81611f38565b9150602083013561201381611f38565b6000602082840312156120ce57600080fd5b8135611f3181611fd7565b600181811c908216806120ed57607f821691505b60208210810361203057634e487b7160e01b600052602260045260246000fd5b60006020828403121561211f57600080fd5b5051919050565b60006020828403121561213857600080fd5b8151611f3181611fd7565b634e487b7160e01b600052601160045260246000fd5b808201808211156109ff576109ff612143565b818103818111156109ff576109ff612143565b8135815560208201356001820155604082013560028201556003810160608301356121a981611fd7565b815490151560ff1660ff19919091161790555050565b80820281158282048414176109ff576109ff612143565b6000826121f357634e487b7160e01b600052601260045260246000fd5b500490565b634e487b7160e01b600052603260045260246000fd5b60006020828403121561222057600080fd5b8151611f3181611f38565b600060a0820187835286602084015260a0604084015280865180835260c08501915060208801925060005b8181101561227d5783516001600160a01b0316835260209384019390920191600101612256565b50506001600160a01b039590951660608401525050608001529392505050565b6000806000606084860312156122b257600080fd5b5050815160208301516040909301519094929350919050565b6080815260006122de6080830187611ed8565b6001600160a01b0395861660208401529390941660408201526060015292915050565b634e487b7160e01b600052605160045260246000fdfe5472616e736665723a2066726f6d20257320746f2025732c20616d6f756e74202573a2646970667358221220da3d3e0aa45da2d5fe46760f160d5e734ee88ce53172f5b38974bc0f873a8c2864736f6c634300081c00335472616e736665723a2066726f6d20257320746f2025732c20616d6f756e74202573",
  "devdoc": {
    "errors": {
      "ERC20InsufficientAllowance(address,uint256,uint256)": [
        {
          "details": "Indicates a failure with the `spender`s `allowance`. Used in transfers.",
          "params": {
            "allowance": "Amount of tokens a `spender` is allowed to operate with.",
            "needed": "Minimum amount required to perform a transfer.",
            "spender": "Address that may be allowed to operate on tokens without being their owner."
          }
        }
      ],
      "ERC20InsufficientBalance(address,uint256,uint256)": [
        {
          "details": "Indicates an error related to the current `balance` of a `sender`. Used in transfers.",
          "params": {
            "balance": "Current balance for the interacting account.",
            "needed": "Minimum amount required to perform a transfer.",
            "sender": "Address whose tokens are being transferred."
          }
        }
      ],
      "ERC20InvalidApprover(address)": [
        {
          "details": "Indicates a failure with the `approver` of a token to be approved. Used in approvals.",
          "params": {
            "approver": "Address initiating an approval operation."
          }
        }
      ],
      "ERC20InvalidReceiver(address)": [
        {
          "details": "Indicates a failure with the token `receiver`. Used in transfers.",
          "params": {
            "receiver": "Address to which tokens are being transferred."
          }
        }
      ],
      "ERC20InvalidSender(address)": [
        {
          "details": "Indicates a failure with the token `sender`. Used in transfers.",
          "params": {
            "sender": "Address whose tokens are being transferred."
          }
        }
      ],
      "ERC20InvalidSpender(address)": [
        {
          "details": "Indicates a failure with the `spender` to be approved. Used in approvals.",
          "params": {
            "spender": "Address that may be allowed to operate on tokens without being their owner."
          }
        }
      ],
      "OwnableInvalidOwner(address)": [
        {
          "details": "The owner is not a valid owner account. (eg. `address(0)`)"
        }
      ],
      "OwnableUnauthorizedAccount(address)": [
        {
          "details": "The caller account is not authorized to perform an operation."
        }
      ]
    },
    "events": {
      "Approval(address,address,uint256)": {
        "details": "Emitted when the allowance of a `spender` for an `owner` is set by a call to {approve}. `value` is the new allowance."
      },
      "Transfer(address,address,uint256)": {
        "details": "Emitted when `value` tokens are moved from one account (`from`) to another (`to`). Note that `value` may be zero."
      }
    },
    "kind": "dev",
    "methods": {
      "allowance(address,address)": {
        "details": "Returns the remaining number of tokens that `spender` will be allowed to spend on behalf of `owner` through {transferFrom}. This is zero by default. This value changes when {approve} or {transferFrom} are called."
      },
      "approve(address,uint256)": {
        "details": "See {IERC20-approve}. NOTE: If `value` is the maximum `uint256`, the allowance is not updated on `transferFrom`. This is semantically equivalent to an infinite approval. Requirements: - `spender` cannot be the zero address."
      },
      "balanceOf(address)": {
        "details": "Returns the value of tokens owned by `account`."
      },
      "decimals()": {
        "details": "Returns the number of decimals used to get its user representation. For example, if `decimals` equals `2`, a balance of `505` tokens should be displayed to a user as `5.05` (`505 / 10 ** 2`). Tokens usually opt for a value of 18, imitating the relationship between Ether and Wei. This is the default value returned by this function, unless it's overridden. NOTE: This information is only used for _display_ purposes: it in no way affects any of the arithmetic of the contract, including {IERC20-balanceOf} and {IERC20-transfer}."
      },
      "name()": {
        "details": "Returns the name of the token."
      },
      "owner()": {
        "details": "Returns the address of the current owner."
      },
      "renounceOwnership()": {
        "details": "Leaves the contract without owner. It will not be possible to call `onlyOwner` functions. Can only be called by the current owner. NOTE: Renouncing ownership will leave the contract without an owner, thereby disabling any functionality that is only available to the owner."
      },
      "symbol()": {
        "details": "Returns the symbol of the token, usually a shorter version of the name."
      },
      "totalSupply()": {
        "details": "Returns the value of tokens in existence."
      },
      "transfer(address,uint256)": {
        "details": "See {IERC20-transfer}. Requirements: - `to` cannot be the zero address. - the caller must have a balance of at least `value`."
      },
      "transferFrom(address,address,uint256)": {
        "details": "See {IERC20-transferFrom}. Skips emitting an {Approval} event indicating an allowance update. This is not required by the ERC. See {xref-ERC20-_approve-address-address-uint256-bool-}[_approve]. NOTE: Does not update the allowance if the current allowance is the maximum `uint256`. Requirements: - `from` and `to` cannot be the zero address. - `from` must have a balance of at least `value`. - the caller must have allowance for ``from``'s tokens of at least `value`."
      },
      "transferOwnership(address)": {
        "details": "Transfers ownership of the contract to a new account (`newOwner`). Can only be called by the current owner."
      }
    },
    "version": 1
  },
  "userdoc": {
    "kind": "user",
    "methods": {},
    "version": 1
  },
  "storageLayout": {
    "storage": [
      {
        "astId": 307,
        "contract": "contracts/ShiBaToken.sol:ShiBaToken",
        "label": "_balances",
        "offset": 0,
        "slot": "0",
        "type": "t_mapping(t_address,t_uint256)"
      },
      {
        "astId": 313,
        "contract": "contracts/ShiBaToken.sol:ShiBaToken",
        "label": "_allowances",
        "offset": 0,
        "slot": "1",
        "type": "t_mapping(t_address,t_mapping(t_address,t_uint256))"
      },
      {
        "astId": 315,
        "contract": "contracts/ShiBaToken.sol:ShiBaToken",
        "label": "_totalSupply",
        "offset": 0,
        "slot": "2",
        "type": "t_uint256"
      },
      {
        "astId": 317,
        "contract": "contracts/ShiBaToken.sol:ShiBaToken",
        "label": "_name",
        "offset": 0,
        "slot": "3",
        "type": "t_string_storage"
      },
      {
        "astId": 319,
        "contract": "contracts/ShiBaToken.sol:ShiBaToken",
        "label": "_symbol",
        "offset": 0,
        "slot": "4",
        "type": "t_string_storage"
      },
      {
        "astId": 8,
        "contract": "contracts/ShiBaToken.sol:ShiBaToken",
        "label": "_owner",
        "offset": 0,
        "slot": "5",
        "type": "t_address"
      },
      {
        "astId": 2138,
        "contract": "contracts/ShiBaToken.sol:ShiBaToken",
        "label": "swapThreshold",
        "offset": 0,
        "slot": "6",
        "type": "t_uint256"
      },
      {
        "astId": 2148,
        "contract": "contracts/ShiBaToken.sol:ShiBaToken",
        "label": "taxRate",
        "offset": 0,
        "slot": "7",
        "type": "t_struct(TaxRate)2145_storage"
      },
      {
        "astId": 2158,
        "contract": "contracts/ShiBaToken.sol:ShiBaToken",
        "label": "taxAllot",
        "offset": 0,
        "slot": "10",
        "type": "t_struct(TaxAllot)2155_storage"
      },
      {
        "astId": 2170,
        "contract": "contracts/ShiBaToken.sol:ShiBaToken",
        "label": "tradeLimit",
        "offset": 0,
        "slot": "13",
        "type": "t_struct(TradeLimit)2167_storage"
      },
      {
        "astId": 2172,
        "contract": "contracts/ShiBaToken.sol:ShiBaToken",
        "label": "marketingWallet",
        "offset": 0,
        "slot": "17",
        "type": "t_address"
      },
      {
        "astId": 2174,
        "contract": "contracts/ShiBaToken.sol:ShiBaToken",
        "label": "liquidityWallet",
        "offset": 0,
        "slot": "18",
        "type": "t_address"
      },
      {
        "astId": 2180,
        "contract": "contracts/ShiBaToken.sol:ShiBaToken",
        "label": "burnAddress",
        "offset": 0,
        "slot": "19",
        "type": "t_address"
      },
      {
        "astId": 2183,
        "contract": "contracts/ShiBaToken.sol:ShiBaToken",
        "label": "uniswapV2Router",
        "offset": 0,
        "slot": "20",
        "type": "t_contract(IUniswapV2Router02)3464"
      },
      {
        "astId": 2185,
        "contract": "contracts/ShiBaToken.sol:ShiBaToken",
        "label": "uniswapV2Pair",
        "offset": 0,
        "slot": "21",
        "type": "t_address"
      },
      {
        "astId": 2187,
        "contract": "contracts/ShiBaToken.sol:ShiBaToken",
        "label": "tradingEnabled",
        "offset": 20,
        "slot": "21",
        "type": "t_bool"
      },
      {
        "astId": 2189,
        "contract": "contracts/ShiBaToken.sol:ShiBaToken",
        "label": "swapEnabled",
        "offset": 21,
        "slot": "21",
        "type": "t_bool"
      },
      {
        "astId": 2191,
        "contract": "contracts/ShiBaToken.sol:ShiBaToken",
        "label": "inSwap",
        "offset": 22,
        "slot": "21",
        "type": "t_bool"
      },
      {
        "astId": 2195,
        "contract": "contracts/ShiBaToken.sol:ShiBaToken",
        "label": "isExcludedFromFee",
        "offset": 0,
        "slot": "22",
        "type": "t_mapping(t_address,t_bool)"
      },
      {
        "astId": 2199,
        "contract": "contracts/ShiBaToken.sol:ShiBaToken",
        "label": "isExcludedLimit",
        "offset": 0,
        "slot": "23",
        "type": "t_mapping(t_address,t_bool)"
      },
      {
        "astId": 2203,
        "contract": "contracts/ShiBaToken.sol:ShiBaToken",
        "label": "ammPairs",
        "offset": 0,
        "slot": "24",
        "type": "t_mapping(t_address,t_bool)"
      },
      {
        "astId": 2207,
        "contract": "contracts/ShiBaToken.sol:ShiBaToken",
        "label": "lastTxTime",
        "offset": 0,
        "slot": "25",
        "type": "t_mapping(t_address,t_uint256)"
      },
      {
        "astId": 2211,
        "contract": "contracts/ShiBaToken.sol:ShiBaToken",
        "label": "isBlacklisted",
        "offset": 0,
        "slot": "26",
        "type": "t_mapping(t_address,t_bool)"
      }
    ],
    "types": {
      "t_address": {
        "encoding": "inplace",
        "label": "address",
        "numberOfBytes": "20"
      },
      "t_bool": {
        "encoding": "inplace",
        "label": "bool",
        "numberOfBytes": "1"
      },
      "t_contract(IUniswapV2Router02)3464": {
        "encoding": "inplace",
        "label": "contract IUniswapV2Router02",
        "numberOfBytes": "20"
      },
      "t_mapping(t_address,t_bool)": {
        "encoding": "mapping",
        "key": "t_address",
        "label": "mapping(address => bool)",
        "numberOfBytes": "32",
        "value": "t_bool"
      },
      "t_mapping(t_address,t_mapping(t_address,t_uint256))": {
        "encoding": "mapping",
        "key": "t_address",
        "label": "mapping(address => mapping(address => uint256))",
        "numberOfBytes": "32",
        "value": "t_mapping(t_address,t_uint256)"
      },
      "t_mapping(t_address,t_uint256)": {
        "encoding": "mapping",
        "key": "t_address",
        "label": "mapping(address => uint256)",
        "numberOfBytes": "32",
        "value": "t_uint256"
      },
      "t_string_storage": {
        "encoding": "bytes",
        "label": "string",
        "numberOfBytes": "32"
      },
      "t_struct(TaxAllot)2155_storage": {
        "encoding": "inplace",
        "label": "struct ShiBaToken.TaxAllot",
        "members": [
          {
            "astId": 2150,
            "contract": "contracts/ShiBaToken.sol:ShiBaToken",
            "label": "liquidity",
            "offset": 0,
            "slot": "0",
            "type": "t_uint256"
          },
          {
            "astId": 2152,
            "contract": "contracts/ShiBaToken.sol:ShiBaToken",
            "label": "marketing",
            "offset": 0,
            "slot": "1",
            "type": "t_uint256"
          },
          {
            "astId": 2154,
            "contract": "contracts/ShiBaToken.sol:ShiBaToken",
            "label": "burn",
            "offset": 0,
            "slot": "2",
            "type": "t_uint256"
          }
        ],
        "numberOfBytes": "96"
      },
      "t_struct(TaxRate)2145_storage": {
        "encoding": "inplace",
        "label": "struct ShiBaToken.TaxRate",
        "members": [
          {
            "astId": 2140,
            "contract": "contracts/ShiBaToken.sol:ShiBaToken",
            "label": "buyTax",
            "offset": 0,
            "slot": "0",
            "type": "t_uint256"
          },
          {
            "astId": 2142,
            "contract": "contracts/ShiBaToken.sol:ShiBaToken",
            "label": "sellTax",
            "offset": 0,
            "slot": "1",
            "type": "t_uint256"
          },
          {
            "astId": 2144,
            "contract": "contracts/ShiBaToken.sol:ShiBaToken",
            "label": "transferTax",
            "offset": 0,
            "slot": "2",
            "type": "t_uint256"
          }
        ],
        "numberOfBytes": "96"
      },
      "t_struct(TradeLimit)2167_storage": {
        "encoding": "inplace",
        "label": "struct ShiBaToken.TradeLimit",
        "members": [
          {
            "astId": 2160,
            "contract": "contracts/ShiBaToken.sol:ShiBaToken",
            "label": "maxTxAmount",
            "offset": 0,
            "slot": "0",
            "type": "t_uint256"
          },
          {
            "astId": 2162,
            "contract": "contracts/ShiBaToken.sol:ShiBaToken",
            "label": "maxWalletAmount",
            "offset": 0,
            "slot": "1",
            "type": "t_uint256"
          },
          {
            "astId": 2164,
            "contract": "contracts/ShiBaToken.sol:ShiBaToken",
            "label": "minTimeBetweenTx",
            "offset": 0,
            "slot": "2",
            "type": "t_uint256"
          },
          {
            "astId": 2166,
            "contract": "contracts/ShiBaToken.sol:ShiBaToken",
            "label": "isTradeLimit",
            "offset": 0,
            "slot": "3",
            "type": "t_bool"
          }
        ],
        "numberOfBytes": "128"
      },
      "t_uint256": {
        "encoding": "inplace",
        "label": "uint256",
        "numberOfBytes": "32"
      }
    }
  }
}